{
    "abi": [
        {
            "inputs": [],
            "stateMutability": "nonpayable",
            "type": "constructor"
        },
        {
            "anonymous": false,
            "inputs": [
                {
                    "indexed": true,
                    "internalType": "address",
                    "name": "user",
                    "type": "address"
                },
                {
                    "indexed": true,
                    "internalType": "uint256",
                    "name": "period",
                    "type": "uint256"
                },
                {
                    "indexed": true,
                    "internalType": "uint256",
                    "name": "amount",
                    "type": "uint256"
                }
            ],
            "name": "Claim",
            "type": "event"
        },
        {
            "anonymous": false,
            "inputs": [
                {
                    "indexed": true,
                    "internalType": "address",
                    "name": "user",
                    "type": "address"
                },
                {
                    "indexed": true,
                    "internalType": "uint256",
                    "name": "period",
                    "type": "uint256"
                },
                {
                    "indexed": true,
                    "internalType": "uint256",
                    "name": "amount",
                    "type": "uint256"
                }
            ],
            "name": "Deposit",
            "type": "event"
        },
        {
            "anonymous": false,
            "inputs": [
                {
                    "indexed": true,
                    "internalType": "address",
                    "name": "previousOwner",
                    "type": "address"
                },
                {
                    "indexed": true,
                    "internalType": "address",
                    "name": "newOwner",
                    "type": "address"
                }
            ],
            "name": "OwnershipTransferred",
            "type": "event"
        },
        {
            "anonymous": false,
            "inputs": [
                {
                    "indexed": false,
                    "internalType": "uint256",
                    "name": "oldFEE_DENOMINATOR",
                    "type": "uint256"
                },
                {
                    "indexed": false,
                    "internalType": "uint256",
                    "name": "newFEE_DENOMINATOR",
                    "type": "uint256"
                }
            ],
            "name": "UpdateFeeDenominator",
            "type": "event"
        },
        {
            "anonymous": false,
            "inputs": [
                {
                    "indexed": true,
                    "internalType": "address",
                    "name": "user",
                    "type": "address"
                },
                {
                    "indexed": true,
                    "internalType": "uint256",
                    "name": "period",
                    "type": "uint256"
                },
                {
                    "indexed": true,
                    "internalType": "uint256",
                    "name": "withdrawalAmount",
                    "type": "uint256"
                },
                {
                    "indexed": false,
                    "internalType": "uint256",
                    "name": "rewardAmount",
                    "type": "uint256"
                }
            ],
            "name": "Withdraw",
            "type": "event"
        },
        {
            "inputs": [],
            "name": "FEE_DENOMINATOR",
            "outputs": [
                {
                    "internalType": "uint256",
                    "name": "",
                    "type": "uint256"
                }
            ],
            "stateMutability": "view",
            "type": "function"
        },
        {
            "inputs": [],
            "name": "PRECISION_FACTOR",
            "outputs": [
                {
                    "internalType": "uint256",
                    "name": "",
                    "type": "uint256"
                }
            ],
            "stateMutability": "view",
            "type": "function"
        },
        {
            "inputs": [],
            "name": "STAKE_FACTORY",
            "outputs": [
                {
                    "internalType": "address",
                    "name": "",
                    "type": "address"
                }
            ],
            "stateMutability": "view",
            "type": "function"
        },
        {
            "inputs": [],
            "name": "_bonusEndBlock",
            "outputs": [
                {
                    "internalType": "uint256",
                    "name": "",
                    "type": "uint256"
                }
            ],
            "stateMutability": "view",
            "type": "function"
        },
        {
            "inputs": [],
            "name": "_isInitialized",
            "outputs": [
                {
                    "internalType": "bool",
                    "name": "",
                    "type": "bool"
                }
            ],
            "stateMutability": "view",
            "type": "function"
        },
        {
            "inputs": [],
            "name": "_isPenaltyCharged",
            "outputs": [
                {
                    "internalType": "bool",
                    "name": "",
                    "type": "bool"
                }
            ],
            "stateMutability": "view",
            "type": "function"
        },
        {
            "inputs": [],
            "name": "_isTimeBasedStaking",
            "outputs": [
                {
                    "internalType": "bool",
                    "name": "",
                    "type": "bool"
                }
            ],
            "stateMutability": "view",
            "type": "function"
        },
        {
            "inputs": [],
            "name": "_lastRewardBlock",
            "outputs": [
                {
                    "internalType": "uint256",
                    "name": "",
                    "type": "uint256"
                }
            ],
            "stateMutability": "view",
            "type": "function"
        },
        {
            "inputs": [
                {
                    "internalType": "uint256",
                    "name": "",
                    "type": "uint256"
                }
            ],
            "name": "_penalties",
            "outputs": [
                {
                    "internalType": "uint256",
                    "name": "",
                    "type": "uint256"
                }
            ],
            "stateMutability": "view",
            "type": "function"
        },
        {
            "inputs": [],
            "name": "_rewardPerBlock",
            "outputs": [
                {
                    "internalType": "uint256",
                    "name": "",
                    "type": "uint256"
                }
            ],
            "stateMutability": "view",
            "type": "function"
        },
        {
            "inputs": [],
            "name": "_rewardToken",
            "outputs": [
                {
                    "internalType": "contract IERC20Metadata",
                    "name": "",
                    "type": "address"
                }
            ],
            "stateMutability": "view",
            "type": "function"
        },
        {
            "inputs": [],
            "name": "_stakedToken",
            "outputs": [
                {
                    "internalType": "contract IERC20Metadata",
                    "name": "",
                    "type": "address"
                }
            ],
            "stateMutability": "view",
            "type": "function"
        },
        {
            "inputs": [],
            "name": "_startBlock",
            "outputs": [
                {
                    "internalType": "uint256",
                    "name": "",
                    "type": "uint256"
                }
            ],
            "stateMutability": "view",
            "type": "function"
        },
        {
            "inputs": [
                {
                    "internalType": "uint256",
                    "name": "",
                    "type": "uint256"
                }
            ],
            "name": "_timePeriods",
            "outputs": [
                {
                    "internalType": "uint256",
                    "name": "",
                    "type": "uint256"
                }
            ],
            "stateMutability": "view",
            "type": "function"
        },
        {
            "inputs": [],
            "name": "_totalAllocPoints",
            "outputs": [
                {
                    "internalType": "uint256",
                    "name": "",
                    "type": "uint256"
                }
            ],
            "stateMutability": "view",
            "type": "function"
        },
        {
            "inputs": [
                {
                    "internalType": "uint256",
                    "name": "period_",
                    "type": "uint256"
                }
            ],
            "name": "claim",
            "outputs": [],
            "stateMutability": "nonpayable",
            "type": "function"
        },
        {
            "inputs": [
                {
                    "internalType": "uint256",
                    "name": "amount_",
                    "type": "uint256"
                },
                {
                    "internalType": "uint256",
                    "name": "period_",
                    "type": "uint256"
                }
            ],
            "name": "deposit",
            "outputs": [],
            "stateMutability": "nonpayable",
            "type": "function"
        },
        {
            "inputs": [
                {
                    "internalType": "contract IERC20Metadata",
                    "name": "stakedToken_",
                    "type": "address"
                },
                {
                    "internalType": "contract IERC20Metadata",
                    "name": "rewardToken_",
                    "type": "address"
                },
                {
                    "internalType": "uint256",
                    "name": "rewardPerBlock_",
                    "type": "uint256"
                },
                {
                    "internalType": "uint256",
                    "name": "startBlock_",
                    "type": "uint256"
                },
                {
                    "internalType": "uint256",
                    "name": "bonusEndBlock_",
                    "type": "uint256"
                },
                {
                    "internalType": "uint256[]",
                    "name": "timePeriods_",
                    "type": "uint256[]"
                },
                {
                    "internalType": "uint256[]",
                    "name": "penalties_",
                    "type": "uint256[]"
                },
                {
                    "internalType": "address",
                    "name": "admin_",
                    "type": "address"
                }
            ],
            "name": "initialize",
            "outputs": [],
            "stateMutability": "nonpayable",
            "type": "function"
        },
        {
            "inputs": [],
            "name": "owner",
            "outputs": [
                {
                    "internalType": "address",
                    "name": "",
                    "type": "address"
                }
            ],
            "stateMutability": "view",
            "type": "function"
        },
        {
            "inputs": [
                {
                    "internalType": "uint256",
                    "name": "",
                    "type": "uint256"
                }
            ],
            "name": "poolInfo",
            "outputs": [
                {
                    "internalType": "uint256",
                    "name": "allocPoint",
                    "type": "uint256"
                },
                {
                    "internalType": "uint256",
                    "name": "lastRewardBlock",
                    "type": "uint256"
                },
                {
                    "internalType": "uint256",
                    "name": "accTokenPerShare",
                    "type": "uint256"
                },
                {
                    "internalType": "uint256",
                    "name": "penalty",
                    "type": "uint256"
                },
                {
                    "internalType": "uint256",
                    "name": "totalDeposits",
                    "type": "uint256"
                }
            ],
            "stateMutability": "view",
            "type": "function"
        },
        {
            "inputs": [],
            "name": "renounceOwnership",
            "outputs": [],
            "stateMutability": "nonpayable",
            "type": "function"
        },
        {
            "inputs": [
                {
                    "internalType": "uint256",
                    "name": "newDenominator_",
                    "type": "uint256"
                }
            ],
            "name": "setFEE_DENOMINATOR",
            "outputs": [],
            "stateMutability": "nonpayable",
            "type": "function"
        },
        {
            "inputs": [
                {
                    "internalType": "address",
                    "name": "newOwner",
                    "type": "address"
                }
            ],
            "name": "transferOwnership",
            "outputs": [],
            "stateMutability": "nonpayable",
            "type": "function"
        },
        {
            "inputs": [
                {
                    "internalType": "address",
                    "name": "",
                    "type": "address"
                },
                {
                    "internalType": "uint256",
                    "name": "",
                    "type": "uint256"
                }
            ],
            "name": "userInfo",
            "outputs": [
                {
                    "internalType": "uint256",
                    "name": "amount",
                    "type": "uint256"
                },
                {
                    "internalType": "uint256",
                    "name": "rewardDebt",
                    "type": "uint256"
                },
                {
                    "internalType": "uint256",
                    "name": "claimTime",
                    "type": "uint256"
                }
            ],
            "stateMutability": "view",
            "type": "function"
        },
        {
            "inputs": [
                {
                    "internalType": "uint256",
                    "name": "amount_",
                    "type": "uint256"
                },
                {
                    "internalType": "uint256",
                    "name": "period_",
                    "type": "uint256"
                }
            ],
            "name": "withdraw",
            "outputs": [],
            "stateMutability": "nonpayable",
            "type": "function"
        }
    ],
    "bytecode": "6080604052600c805461ffff19166101011790556064600e5534801561002457600080fd5b5061002e33610049565b60018055600280546001600160a01b03191633179055610099565b600080546001600160a01b038381166001600160a01b0319831681178455604051919092169283917f8be0079c531659141344cd1fd0a4f28419497f9722a3daafe3b4186f6b6457e09190a35050565b611f00806100a86000396000f3fe608060405234801561001057600080fd5b50600436106101735760003560e01c80638da5cb5b116100de578063e1d982a811610097578063e9a09bb111610071578063e9a09bb11461037f578063ea17f99314610392578063f2fde38b146103a5578063f7a56e06146103b857600080fd5b8063e1d982a81461034c578063e2bbb1581461035f578063e4bc77001461037257600080fd5b80638da5cb5b146102f9578063a09d09541461030a578063b59c6e0e14610313578063b893e86e14610326578063ccd34cd51461033a578063d73792a91461034357600080fd5b8063379607f511610130578063379607f514610273578063427a9d1814610288578063441a3e7014610291578063517a468b146102a4578063606f3f31146102c6578063715018a6146102f157600080fd5b80630da40a20146101785780631526fe2714610194578063174d8146146101f957806321ce919d1461020c57806327186264146102615780632c71ecb61461026a575b600080fd5b610181600b5481565b6040519081526020015b60405180910390f35b6101d16101a236600461198d565b600f60205260009081526040902080546001820154600283015460038401546004909401549293919290919085565b604080519586526020860194909452928401919091526060830152608082015260a00161018b565b61018161020736600461198d565b6103cb565b61024661021a3660046119bb565b601060209081526000928352604080842090915290825290208054600182015460029092015490919083565b6040805193845260208401929092529082015260600161018b565b61018160075481565b61018160065481565b61028661028136600461198d565b6103ec565b005b61018160085481565b61028661029f3660046119e7565b610667565b600c546102b690610100900460ff1681565b604051901515815260200161018b565b6003546102d9906001600160a01b031681565b6040516001600160a01b03909116815260200161018b565b610286610990565b6000546001600160a01b03166102d9565b61018160055481565b6004546102d9906001600160a01b031681565b6002546102b690600160a01b900460ff1681565b610181600d5481565b610181600e5481565b61018161035a36600461198d565b6109c6565b61028661036d3660046119e7565b6109d6565b600c546102b69060ff1681565b6002546102d9906001600160a01b031681565b6102866103a036600461198d565b610bf9565b6102866103b3366004611a09565b610c68565b6102866103c6366004611acc565b610d03565b600981815481106103db57600080fd5b600091825260209091200154905081565b6002600154036104175760405162461bcd60e51b815260040161040e90611b87565b60405180910390fd5b6002600155600c5460ff16156104a257610481600980548060200260200160405190810160405280929190818152602001828054801561047657602002820191906000526020600020905b815481526020019060010190808311610462575b505050505082611481565b61049d5760405162461bcd60e51b815260040161040e90611bbe565b6104c0565b80156104c05760405162461bcd60e51b815260040161040e90611bee565b6000818152600f6020908152604080832033845260108352818420858552909252909120600c54610100900460ff1615806104ff575042816002015411155b8061050c57506003820154155b6105585760405162461bcd60e51b815260206004820152601d60248201527f436c61696d2074696d65206973206e6f74207965742072656163686564000000604482015260640161040e565b80546105b15760405162461bcd60e51b815260206004820152602260248201527f5573657220686173206e6f7420796574207374616b656420616e7920746f6b656044820152616e7360f01b606482015260840161040e565b6105ba836114d4565b60008160010154600d54846002015484600001546105d89190611c46565b6105e29190611c65565b6105ec9190611c87565b9050801561060b5760045461060b906001600160a01b03163383611587565b600d546002840154835461061f9190611c46565b6106299190611c65565b60018301556040518190859033907f34fcbac0073d7c3d388e51312faf357774904998eeb8fca628b9e6f65ee1cbf790600090a45050600180555050565b6002600154036106895760405162461bcd60e51b815260040161040e90611b87565b6002600155816106ed5760405162461bcd60e51b815260206004820152602960248201527f576974686472617720616d6f756e74206d7573742062652067726561746572206044820152687468616e207a65726f60b81b606482015260840161040e565b600c5460ff1615610771576107506009805480602002602001604051908101604052809291908181526020018280548015610476576020028201919060005260206000209081548152602001906001019080831161046257505050505082611481565b61076c5760405162461bcd60e51b815260040161040e90611bbe565b61078f565b801561078f5760405162461bcd60e51b815260040161040e90611bee565b6000818152600f602090815260408083203384526010835281842085855290925290912080548411156108145760405162461bcd60e51b815260206004820152602760248201527f5769746864726177616c20616d6f756e742065786365656473207374616b656460448201526608185b5bdd5b9d60ca1b606482015260840161040e565b61081d836114d4565b60008160010154600d548460020154846000015461083b9190611c46565b6108459190611c65565b61084f9190611c87565b905080156108e057600c54610100900460ff161580610872575042826002015411155b8061087f57506003830154155b156108a05760045461089b906001600160a01b03163383611587565b6108e0565b600e5460038401546108b29083611c46565b6108bc9190611c65565b6108c69082611c87565b6004549091506108e0906001600160a01b03163383611587565b848360040160008282546108f49190611c87565b909155505081548590839060009061090d908490611c87565b9091555050600354610929906001600160a01b03163387611587565b600d546002840154835461093d9190611c46565b6109479190611c65565b60018301556040518181528590859033907f02f25270a4d87bea75db541cdfe559334a275b4a233520ed6c0a2429667cca949060200160405180910390a4505060018055505050565b6000546001600160a01b031633146109ba5760405162461bcd60e51b815260040161040e90611c9e565b6109c460006115ef565b565b600a81815481106103db57600080fd5b6002600154036109f85760405162461bcd60e51b815260040161040e90611b87565b600260015581610a5b5760405162461bcd60e51b815260206004820152602860248201527f4465706f73697420616d6f756e74206d7573742062652067726561746572207460448201526768616e207a65726f60c01b606482015260840161040e565b600c5460ff1615610adf57610abe6009805480602002602001604051908101604052809291908181526020018280548015610476576020028201919060005260206000209081548152602001906001019080831161046257505050505082611481565b610ada5760405162461bcd60e51b815260040161040e90611bbe565b610afd565b8015610afd5760405162461bcd60e51b815260040161040e90611bee565b6000818152600f6020908152604080832033845260108352818420858552909252909120610b2a836114d4565b600354610b42906001600160a01b031633308761163f565b83826004016000828254610b569190611cd3565b9091555050805484908290600090610b6f908490611cd3565b9091555050600d5460028301548254610b889190611c46565b610b929190611c65565b6001820155600c54610100900460ff1615610bc057610bb08361167d565b610bba9042611cd3565b60028201555b6040518490849033907f90890809c654f11d6e72a28fa60149770a0d11ec6c92319d6ceb2bb0a4ea1a1590600090a45050600180555050565b6000546001600160a01b03163314610c235760405162461bcd60e51b815260040161040e90611c9e565b600e80549082905560408051828152602081018490527f9114a560d1911effc47bdadc8bb95e023492efee2fc9cb29a3bacaa5f899132e910160405180910390a15050565b6000546001600160a01b03163314610c925760405162461bcd60e51b815260040161040e90611c9e565b6001600160a01b038116610cf75760405162461bcd60e51b815260206004820152602660248201527f4f776e61626c653a206e6577206f776e657220697320746865207a65726f206160448201526564647265737360d01b606482015260840161040e565b610d00816115ef565b50565b600254600160a01b900460ff1615610d535760405162461bcd60e51b8152602060048201526013602482015272105b1c9958591e481a5b9a5d1a585b1a5e9959606a1b604482015260640161040e565b6002546001600160a01b03163314610d9b5760405162461bcd60e51b815260206004820152600b60248201526a4e6f7420666163746f727960a81b604482015260640161040e565b6001600160a01b03881615801590610dbb57506001600160a01b03871615155b610e235760405162461bcd60e51b815260206004820152603360248201527f5374616b656420746f6b656e206f722052657761726420746f6b656e2063616e6044820152726e6f74206265207a65726f206164647265737360681b606482015260840161040e565b85600003610e865760405162461bcd60e51b815260206004820152602a60248201527f5265776172642050657220426c6f636b206d7573742062652067726561746572604482015269207468616e207a65726f60b01b606482015260840161040e565b43851015610efc5760405162461bcd60e51b815260206004820152603c60248201527f537461727420626c6f636b206d757374206265206168656164206f722065717560448201527f616c20746f2074686520696e697469616c697a696e6720626c6f636b00000000606482015260840161040e565b848411610f645760405162461bcd60e51b815260206004820152603060248201527f5374616b696e6720656e642074696d65206d757374206265206772656174657260448201526f207468616e2073746172742074696d6560801b606482015260840161040e565b8151835114610fcb5760405162461bcd60e51b815260206004820152602d60248201527f54696d6520706572696f6420616e642070656e616c7479206c656e677468732060448201526c1b5d5cdd08189948195c5d585b609a1b606482015260840161040e565b82516001036110765782600081518110610fe757610fe7611ceb565b60200260200101516000036110765760405162461bcd60e51b815260206004820152604960248201527f54696d6520706572696f642063616e6e6f74206265207a65726f2e20456e746560448201527f7220656d70747920617272617920746f2061766f69642074696d652d6261736560648201526864207374616b696e6760b81b608482015260a40161040e565b6002805460ff60a01b1916600160a01b179055600380546001600160a01b03808b166001600160a01b03199283161790925560048054928a169290911691909117905560058690556006859055600784905582516110db90600990602086019061192d565b5081516110ef90600a90602085019061192d565b506000600460009054906101000a90046001600160a01b03166001600160a01b031663313ce5676040518163ffffffff1660e01b8152600401602060405180830381865afa158015611145573d6000803e3d6000fd5b505050506040513d601f19601f820116820180604052508101906111699190611d01565b60ff169050601e81106111b55760405162461bcd60e51b815260206004820152601460248201527304d757374206265206c657373207468616e2033360641b604482015260640161040e565b83516000036111c957600c805460ff191690555b82516000036111e257600c805461ff001916905561124d565b60005b835181101561124b5783818151811061120057611200611ceb565b6020026020010151600003611234576001845161121d9190611c87565b810361122f57600c805461ff00191690555b611239565b61124b565b8061124381611d24565b9150506111e5565b505b600c5460ff161561135d576009546002611268826001611cd3565b6112729083611c46565b61127c9190611c65565b600b5560005b81811015611356576040518060a001604052808260016112a29190611cd3565b8152602001600654815260200160008152602001600a83815481106112c9576112c9611ceb565b906000526020600020015481526020016000815250600f6000600984815481106112f5576112f5611ceb565b906000526020600020015481526020019081526020016000206000820151816000015560208201518160010155604082015181600201556060820151816003015560808201518160040155905050808061134e90611d24565b915050611282565b505061144e565b6001600b8190556040805160a081018252918252600654602080840191825260009284018381526060850184815260808601858152948052600f90925293517ff4803e074bd026baaf6ed2e288c9515f68c72fb7216eebdd7cae1718a53ec3755590517ff4803e074bd026baaf6ed2e288c9515f68c72fb7216eebdd7cae1718a53ec3765591517ff4803e074bd026baaf6ed2e288c9515f68c72fb7216eebdd7cae1718a53ec3775590517ff4803e074bd026baaf6ed2e288c9515f68c72fb7216eebdd7cae1718a53ec37855517ff4803e074bd026baaf6ed2e288c9515f68c72fb7216eebdd7cae1718a53ec379555b61145981601e611c87565b61146490600a611e21565b600d5560065460085561147682610c68565b505050505050505050565b600080805b84518110156114ca57838582815181106114a2576114a2611ceb565b6020026020010151036114b857600191506114ca565b806114c281611d24565b915050611486565b5090505b92915050565b6000818152600f60205260409020600181015443116114f1575050565b6004810154600081900361150a57504360019091015550565b600061151a8360010154436116a8565b600b5484546005549293506000926115329085611c46565b61153c9190611c46565b6115469190611c65565b905082600d54826115579190611c46565b6115619190611c65565b84600201546115709190611cd3565b600285015550504360019092018290555060085550565b6040516001600160a01b0383166024820152604481018290526115ea90849063a9059cbb60e01b906064015b60408051601f198184030181529190526020810180516001600160e01b03166001600160e01b0319909316929092179091526116e3565b505050565b600080546001600160a01b038381166001600160a01b0319831681178455604051919092169283917f8be0079c531659141344cd1fd0a4f28419497f9722a3daafe3b4186f6b6457e09190a35050565b6040516001600160a01b03808516602483015283166044820152606481018290526116779085906323b872dd60e01b906084016115b3565b50505050565b60008061168b836018611c46565b61169690603c611c46565b6116a190603c611c46565b9392505050565b600060075482116116c4576116bd8383611c87565b90506114ce565b60075483106116d5575060006114ce565b826007546116a19190611c87565b6000611738826040518060400160405280602081526020017f5361666545524332303a206c6f772d6c6576656c2063616c6c206661696c6564815250856001600160a01b03166117b59092919063ffffffff16565b8051909150156115ea57808060200190518101906117569190611e2d565b6115ea5760405162461bcd60e51b815260206004820152602a60248201527f5361666545524332303a204552433230206f7065726174696f6e20646964206e6044820152691bdd081cdd58d8d9595960b21b606482015260840161040e565b60606117c484846000856117cc565b949350505050565b60608247101561182d5760405162461bcd60e51b815260206004820152602660248201527f416464726573733a20696e73756666696369656e742062616c616e636520666f6044820152651c8818d85b1b60d21b606482015260840161040e565b843b61187b5760405162461bcd60e51b815260206004820152601d60248201527f416464726573733a2063616c6c20746f206e6f6e2d636f6e7472616374000000604482015260640161040e565b600080866001600160a01b031685876040516118979190611e7b565b60006040518083038185875af1925050503d80600081146118d4576040519150601f19603f3d011682016040523d82523d6000602084013e6118d9565b606091505b50915091506118e98282866118f4565b979650505050505050565b606083156119035750816116a1565b8251156119135782518084602001fd5b8160405162461bcd60e51b815260040161040e9190611e97565b828054828255906000526020600020908101928215611968579160200282015b8281111561196857825182559160200191906001019061194d565b50611974929150611978565b5090565b5b808211156119745760008155600101611979565b60006020828403121561199f57600080fd5b5035919050565b6001600160a01b0381168114610d0057600080fd5b600080604083850312156119ce57600080fd5b82356119d9816119a6565b946020939093013593505050565b600080604083850312156119fa57600080fd5b50508035926020909101359150565b600060208284031215611a1b57600080fd5b81356116a1816119a6565b634e487b7160e01b600052604160045260246000fd5b600082601f830112611a4d57600080fd5b8135602067ffffffffffffffff80831115611a6a57611a6a611a26565b8260051b604051601f19603f83011681018181108482111715611a8f57611a8f611a26565b604052938452858101830193838101925087851115611aad57600080fd5b83870191505b848210156118e957813583529183019190830190611ab3565b600080600080600080600080610100898b031215611ae957600080fd5b8835611af4816119a6565b97506020890135611b04816119a6565b965060408901359550606089013594506080890135935060a089013567ffffffffffffffff80821115611b3657600080fd5b611b428c838d01611a3c565b945060c08b0135915080821115611b5857600080fd5b50611b658b828c01611a3c565b92505060e0890135611b76816119a6565b809150509295985092959890939650565b6020808252601f908201527f5265656e7472616e637947756172643a207265656e7472616e742063616c6c00604082015260600190565b602080825260169082015275125b9d985b1a59081cdd185ada5b99c81c195c9a5bd960521b604082015260600190565b60208082526022908201527f496e76616c6964207374616b696e6720706572696f642c20656e746572207a65604082015261726f60f01b606082015260800190565b634e487b7160e01b600052601160045260246000fd5b6000816000190483118215151615611c6057611c60611c30565b500290565b600082611c8257634e487b7160e01b600052601260045260246000fd5b500490565b600082821015611c9957611c99611c30565b500390565b6020808252818101527f4f776e61626c653a2063616c6c6572206973206e6f7420746865206f776e6572604082015260600190565b60008219821115611ce657611ce6611c30565b500190565b634e487b7160e01b600052603260045260246000fd5b600060208284031215611d1357600080fd5b815160ff811681146116a157600080fd5b600060018201611d3657611d36611c30565b5060010190565b600181815b80851115611d78578160001904821115611d5e57611d5e611c30565b80851615611d6b57918102915b93841c9390800290611d42565b509250929050565b600082611d8f575060016114ce565b81611d9c575060006114ce565b8160018114611db25760028114611dbc57611dd8565b60019150506114ce565b60ff841115611dcd57611dcd611c30565b50506001821b6114ce565b5060208310610133831016604e8410600b8410161715611dfb575081810a6114ce565b611e058383611d3d565b8060001904821115611e1957611e19611c30565b029392505050565b60006116a18383611d80565b600060208284031215611e3f57600080fd5b815180151581146116a157600080fd5b60005b83811015611e6a578181015183820152602001611e52565b838111156116775750506000910152565b60008251611e8d818460208701611e4f565b9190910192915050565b6020815260008251806020840152611eb6816040850160208701611e4f565b601f01601f1916919091016040019291505056fea2646970667358221220653d1d2d52d1e76077bd560117acce24d2813126bea5585898637bed24620f7a64736f6c634300080d0033",
    "bytecodeSha1": "bf44568a1d1dd33db499f8461d993d64dfe3b140",
    "compiler": {
        "evm_version": "istanbul",
        "optimizer": {
            "enabled": true,
            "runs": 200
        },
        "version": "0.8.13+commit.abaa5c0e"
    },
    "contractName": "StakeInitializable",
    "language": "Solidity",
    "natspec": {
        "kind": "dev",
        "methods": {
            "claim(uint256)": {
                "notice": "Claim reward tokens (if any)",
                "params": {
                    "period_": ": staking interval"
                }
            },
            "deposit(uint256,uint256)": {
                "notice": "Deposit staked tokens",
                "params": {
                    "amount_": ": amount to deposit (in staked tokens)",
                    "period_": ": staking interval"
                }
            },
            "initialize(address,address,uint256,uint256,uint256,uint256[],uint256[],address)": {
                "notice": "Initialize the contract",
                "params": {
                    "admin_": ":  admin address with ownership",
                    "bonusEndBlock_": ": end block",
                    "penalties_": ": early withdrawal penalty for every staking interval",
                    "rewardPerBlock_": ": reward per block (in reward token)",
                    "rewardToken_": ": reward token address",
                    "stakedToken_": ": staked token address",
                    "startBlock_": ": start block",
                    "timePeriods_": ": staking intervals (in days)"
                }
            },
            "owner()": {
                "details": "Returns the address of the current owner."
            },
            "renounceOwnership()": {
                "details": "Leaves the contract without owner. It will not be possible to call `onlyOwner` functions anymore. Can only be called by the current owner. NOTE: Renouncing ownership will leave the contract without an owner, thereby removing any functionality that is only available to the owner."
            },
            "setFEE_DENOMINATOR(uint256)": {
                "notice": "Set Fee Denominator",
                "params": {
                    "newDenominator_": ": new fee denominator"
                }
            },
            "transferOwnership(address)": {
                "details": "Transfers ownership of the contract to a new account (`newOwner`). Can only be called by the current owner."
            },
            "withdraw(uint256,uint256)": {
                "notice": "Withdraw staked tokens",
                "params": {
                    "amount_": ": amount to withdraw (in staked tokens)",
                    "period_": ": staking interval"
                }
            }
        },
        "version": 1
    },
    "opcodes": "PUSH1 0x80 PUSH1 0x40 MSTORE CALLVALUE DUP1 ISZERO PUSH2 0x10 JUMPI PUSH1 0x0 DUP1 REVERT JUMPDEST POP PUSH1 0x4 CALLDATASIZE LT PUSH2 0x173 JUMPI PUSH1 0x0 CALLDATALOAD PUSH1 0xE0 SHR DUP1 PUSH4 0x8DA5CB5B GT PUSH2 0xDE JUMPI DUP1 PUSH4 0xE1D982A8 GT PUSH2 0x97 JUMPI DUP1 PUSH4 0xE9A09BB1 GT PUSH2 0x71 JUMPI DUP1 PUSH4 0xE9A09BB1 EQ PUSH2 0x37F JUMPI DUP1 PUSH4 0xEA17F993 EQ PUSH2 0x392 JUMPI DUP1 PUSH4 0xF2FDE38B EQ PUSH2 0x3A5 JUMPI DUP1 PUSH4 0xF7A56E06 EQ PUSH2 0x3B8 JUMPI PUSH1 0x0 DUP1 REVERT JUMPDEST DUP1 PUSH4 0xE1D982A8 EQ PUSH2 0x34C JUMPI DUP1 PUSH4 0xE2BBB158 EQ PUSH2 0x35F JUMPI DUP1 PUSH4 0xE4BC7700 EQ PUSH2 0x372 JUMPI PUSH1 0x0 DUP1 REVERT JUMPDEST DUP1 PUSH4 0x8DA5CB5B EQ PUSH2 0x2F9 JUMPI DUP1 PUSH4 0xA09D0954 EQ PUSH2 0x30A JUMPI DUP1 PUSH4 0xB59C6E0E EQ PUSH2 0x313 JUMPI DUP1 PUSH4 0xB893E86E EQ PUSH2 0x326 JUMPI DUP1 PUSH4 0xCCD34CD5 EQ PUSH2 0x33A JUMPI DUP1 PUSH4 0xD73792A9 EQ PUSH2 0x343 JUMPI PUSH1 0x0 DUP1 REVERT JUMPDEST DUP1 PUSH4 0x379607F5 GT PUSH2 0x130 JUMPI DUP1 PUSH4 0x379607F5 EQ PUSH2 0x273 JUMPI DUP1 PUSH4 0x427A9D18 EQ PUSH2 0x288 JUMPI DUP1 PUSH4 0x441A3E70 EQ PUSH2 0x291 JUMPI DUP1 PUSH4 0x517A468B EQ PUSH2 0x2A4 JUMPI DUP1 PUSH4 0x606F3F31 EQ PUSH2 0x2C6 JUMPI DUP1 PUSH4 0x715018A6 EQ PUSH2 0x2F1 JUMPI PUSH1 0x0 DUP1 REVERT JUMPDEST DUP1 PUSH4 0xDA40A20 EQ PUSH2 0x178 JUMPI DUP1 PUSH4 0x1526FE27 EQ PUSH2 0x194 JUMPI DUP1 PUSH4 0x174D8146 EQ PUSH2 0x1F9 JUMPI DUP1 PUSH4 0x21CE919D EQ PUSH2 0x20C JUMPI DUP1 PUSH4 0x27186264 EQ PUSH2 0x261 JUMPI DUP1 PUSH4 0x2C71ECB6 EQ PUSH2 0x26A JUMPI JUMPDEST PUSH1 0x0 DUP1 REVERT JUMPDEST PUSH2 0x181 PUSH1 0xB SLOAD DUP2 JUMP JUMPDEST PUSH1 0x40 MLOAD SWAP1 DUP2 MSTORE PUSH1 0x20 ADD JUMPDEST PUSH1 0x40 MLOAD DUP1 SWAP2 SUB SWAP1 RETURN JUMPDEST PUSH2 0x1D1 PUSH2 0x1A2 CALLDATASIZE PUSH1 0x4 PUSH2 0x198D JUMP JUMPDEST PUSH1 0xF PUSH1 0x20 MSTORE PUSH1 0x0 SWAP1 DUP2 MSTORE PUSH1 0x40 SWAP1 KECCAK256 DUP1 SLOAD PUSH1 0x1 DUP3 ADD SLOAD PUSH1 0x2 DUP4 ADD SLOAD PUSH1 0x3 DUP5 ADD SLOAD PUSH1 0x4 SWAP1 SWAP5 ADD SLOAD SWAP3 SWAP4 SWAP2 SWAP3 SWAP1 SWAP2 SWAP1 DUP6 JUMP JUMPDEST PUSH1 0x40 DUP1 MLOAD SWAP6 DUP7 MSTORE PUSH1 0x20 DUP7 ADD SWAP5 SWAP1 SWAP5 MSTORE SWAP3 DUP5 ADD SWAP2 SWAP1 SWAP2 MSTORE PUSH1 0x60 DUP4 ADD MSTORE PUSH1 0x80 DUP3 ADD MSTORE PUSH1 0xA0 ADD PUSH2 0x18B JUMP JUMPDEST PUSH2 0x181 PUSH2 0x207 CALLDATASIZE PUSH1 0x4 PUSH2 0x198D JUMP JUMPDEST PUSH2 0x3CB JUMP JUMPDEST PUSH2 0x246 PUSH2 0x21A CALLDATASIZE PUSH1 0x4 PUSH2 0x19BB JUMP JUMPDEST PUSH1 0x10 PUSH1 0x20 SWAP1 DUP2 MSTORE PUSH1 0x0 SWAP3 DUP4 MSTORE PUSH1 0x40 DUP1 DUP5 KECCAK256 SWAP1 SWAP2 MSTORE SWAP1 DUP3 MSTORE SWAP1 KECCAK256 DUP1 SLOAD PUSH1 0x1 DUP3 ADD SLOAD PUSH1 0x2 SWAP1 SWAP3 ADD SLOAD SWAP1 SWAP2 SWAP1 DUP4 JUMP JUMPDEST PUSH1 0x40 DUP1 MLOAD SWAP4 DUP5 MSTORE PUSH1 0x20 DUP5 ADD SWAP3 SWAP1 SWAP3 MSTORE SWAP1 DUP3 ADD MSTORE PUSH1 0x60 ADD PUSH2 0x18B JUMP JUMPDEST PUSH2 0x181 PUSH1 0x7 SLOAD DUP2 JUMP JUMPDEST PUSH2 0x181 PUSH1 0x6 SLOAD DUP2 JUMP JUMPDEST PUSH2 0x286 PUSH2 0x281 CALLDATASIZE PUSH1 0x4 PUSH2 0x198D JUMP JUMPDEST PUSH2 0x3EC JUMP JUMPDEST STOP JUMPDEST PUSH2 0x181 PUSH1 0x8 SLOAD DUP2 JUMP JUMPDEST PUSH2 0x286 PUSH2 0x29F CALLDATASIZE PUSH1 0x4 PUSH2 0x19E7 JUMP JUMPDEST PUSH2 0x667 JUMP JUMPDEST PUSH1 0xC SLOAD PUSH2 0x2B6 SWAP1 PUSH2 0x100 SWAP1 DIV PUSH1 0xFF AND DUP2 JUMP JUMPDEST PUSH1 0x40 MLOAD SWAP1 ISZERO ISZERO DUP2 MSTORE PUSH1 0x20 ADD PUSH2 0x18B JUMP JUMPDEST PUSH1 0x3 SLOAD PUSH2 0x2D9 SWAP1 PUSH1 0x1 PUSH1 0x1 PUSH1 0xA0 SHL SUB AND DUP2 JUMP JUMPDEST PUSH1 0x40 MLOAD PUSH1 0x1 PUSH1 0x1 PUSH1 0xA0 SHL SUB SWAP1 SWAP2 AND DUP2 MSTORE PUSH1 0x20 ADD PUSH2 0x18B JUMP JUMPDEST PUSH2 0x286 PUSH2 0x990 JUMP JUMPDEST PUSH1 0x0 SLOAD PUSH1 0x1 PUSH1 0x1 PUSH1 0xA0 SHL SUB AND PUSH2 0x2D9 JUMP JUMPDEST PUSH2 0x181 PUSH1 0x5 SLOAD DUP2 JUMP JUMPDEST PUSH1 0x4 SLOAD PUSH2 0x2D9 SWAP1 PUSH1 0x1 PUSH1 0x1 PUSH1 0xA0 SHL SUB AND DUP2 JUMP JUMPDEST PUSH1 0x2 SLOAD PUSH2 0x2B6 SWAP1 PUSH1 0x1 PUSH1 0xA0 SHL SWAP1 DIV PUSH1 0xFF AND DUP2 JUMP JUMPDEST PUSH2 0x181 PUSH1 0xD SLOAD DUP2 JUMP JUMPDEST PUSH2 0x181 PUSH1 0xE SLOAD DUP2 JUMP JUMPDEST PUSH2 0x181 PUSH2 0x35A CALLDATASIZE PUSH1 0x4 PUSH2 0x198D JUMP JUMPDEST PUSH2 0x9C6 JUMP JUMPDEST PUSH2 0x286 PUSH2 0x36D CALLDATASIZE PUSH1 0x4 PUSH2 0x19E7 JUMP JUMPDEST PUSH2 0x9D6 JUMP JUMPDEST PUSH1 0xC SLOAD PUSH2 0x2B6 SWAP1 PUSH1 0xFF AND DUP2 JUMP JUMPDEST PUSH1 0x2 SLOAD PUSH2 0x2D9 SWAP1 PUSH1 0x1 PUSH1 0x1 PUSH1 0xA0 SHL SUB AND DUP2 JUMP JUMPDEST PUSH2 0x286 PUSH2 0x3A0 CALLDATASIZE PUSH1 0x4 PUSH2 0x198D JUMP JUMPDEST PUSH2 0xBF9 JUMP JUMPDEST PUSH2 0x286 PUSH2 0x3B3 CALLDATASIZE PUSH1 0x4 PUSH2 0x1A09 JUMP JUMPDEST PUSH2 0xC68 JUMP JUMPDEST PUSH2 0x286 PUSH2 0x3C6 CALLDATASIZE PUSH1 0x4 PUSH2 0x1ACC JUMP JUMPDEST PUSH2 0xD03 JUMP JUMPDEST PUSH1 0x9 DUP2 DUP2 SLOAD DUP2 LT PUSH2 0x3DB JUMPI PUSH1 0x0 DUP1 REVERT JUMPDEST PUSH1 0x0 SWAP2 DUP3 MSTORE PUSH1 0x20 SWAP1 SWAP2 KECCAK256 ADD SLOAD SWAP1 POP DUP2 JUMP JUMPDEST PUSH1 0x2 PUSH1 0x1 SLOAD SUB PUSH2 0x417 JUMPI PUSH1 0x40 MLOAD PUSH3 0x461BCD PUSH1 0xE5 SHL DUP2 MSTORE PUSH1 0x4 ADD PUSH2 0x40E SWAP1 PUSH2 0x1B87 JUMP JUMPDEST PUSH1 0x40 MLOAD DUP1 SWAP2 SUB SWAP1 REVERT JUMPDEST PUSH1 0x2 PUSH1 0x1 SSTORE PUSH1 0xC SLOAD PUSH1 0xFF AND ISZERO PUSH2 0x4A2 JUMPI PUSH2 0x481 PUSH1 0x9 DUP1 SLOAD DUP1 PUSH1 0x20 MUL PUSH1 0x20 ADD PUSH1 0x40 MLOAD SWAP1 DUP2 ADD PUSH1 0x40 MSTORE DUP1 SWAP3 SWAP2 SWAP1 DUP2 DUP2 MSTORE PUSH1 0x20 ADD DUP3 DUP1 SLOAD DUP1 ISZERO PUSH2 0x476 JUMPI PUSH1 0x20 MUL DUP3 ADD SWAP2 SWAP1 PUSH1 0x0 MSTORE PUSH1 0x20 PUSH1 0x0 KECCAK256 SWAP1 JUMPDEST DUP2 SLOAD DUP2 MSTORE PUSH1 0x20 ADD SWAP1 PUSH1 0x1 ADD SWAP1 DUP1 DUP4 GT PUSH2 0x462 JUMPI JUMPDEST POP POP POP POP POP DUP3 PUSH2 0x1481 JUMP JUMPDEST PUSH2 0x49D JUMPI PUSH1 0x40 MLOAD PUSH3 0x461BCD PUSH1 0xE5 SHL DUP2 MSTORE PUSH1 0x4 ADD PUSH2 0x40E SWAP1 PUSH2 0x1BBE JUMP JUMPDEST PUSH2 0x4C0 JUMP JUMPDEST DUP1 ISZERO PUSH2 0x4C0 JUMPI PUSH1 0x40 MLOAD PUSH3 0x461BCD PUSH1 0xE5 SHL DUP2 MSTORE PUSH1 0x4 ADD PUSH2 0x40E SWAP1 PUSH2 0x1BEE JUMP JUMPDEST PUSH1 0x0 DUP2 DUP2 MSTORE PUSH1 0xF PUSH1 0x20 SWAP1 DUP2 MSTORE PUSH1 0x40 DUP1 DUP4 KECCAK256 CALLER DUP5 MSTORE PUSH1 0x10 DUP4 MSTORE DUP2 DUP5 KECCAK256 DUP6 DUP6 MSTORE SWAP1 SWAP3 MSTORE SWAP1 SWAP2 KECCAK256 PUSH1 0xC SLOAD PUSH2 0x100 SWAP1 DIV PUSH1 0xFF AND ISZERO DUP1 PUSH2 0x4FF JUMPI POP TIMESTAMP DUP2 PUSH1 0x2 ADD SLOAD GT ISZERO JUMPDEST DUP1 PUSH2 0x50C JUMPI POP PUSH1 0x3 DUP3 ADD SLOAD ISZERO JUMPDEST PUSH2 0x558 JUMPI PUSH1 0x40 MLOAD PUSH3 0x461BCD PUSH1 0xE5 SHL DUP2 MSTORE PUSH1 0x20 PUSH1 0x4 DUP3 ADD MSTORE PUSH1 0x1D PUSH1 0x24 DUP3 ADD MSTORE PUSH32 0x436C61696D2074696D65206973206E6F74207965742072656163686564000000 PUSH1 0x44 DUP3 ADD MSTORE PUSH1 0x64 ADD PUSH2 0x40E JUMP JUMPDEST DUP1 SLOAD PUSH2 0x5B1 JUMPI PUSH1 0x40 MLOAD PUSH3 0x461BCD PUSH1 0xE5 SHL DUP2 MSTORE PUSH1 0x20 PUSH1 0x4 DUP3 ADD MSTORE PUSH1 0x22 PUSH1 0x24 DUP3 ADD MSTORE PUSH32 0x5573657220686173206E6F7420796574207374616B656420616E7920746F6B65 PUSH1 0x44 DUP3 ADD MSTORE PUSH2 0x6E73 PUSH1 0xF0 SHL PUSH1 0x64 DUP3 ADD MSTORE PUSH1 0x84 ADD PUSH2 0x40E JUMP JUMPDEST PUSH2 0x5BA DUP4 PUSH2 0x14D4 JUMP JUMPDEST PUSH1 0x0 DUP2 PUSH1 0x1 ADD SLOAD PUSH1 0xD SLOAD DUP5 PUSH1 0x2 ADD SLOAD DUP5 PUSH1 0x0 ADD SLOAD PUSH2 0x5D8 SWAP2 SWAP1 PUSH2 0x1C46 JUMP JUMPDEST PUSH2 0x5E2 SWAP2 SWAP1 PUSH2 0x1C65 JUMP JUMPDEST PUSH2 0x5EC SWAP2 SWAP1 PUSH2 0x1C87 JUMP JUMPDEST SWAP1 POP DUP1 ISZERO PUSH2 0x60B JUMPI PUSH1 0x4 SLOAD PUSH2 0x60B SWAP1 PUSH1 0x1 PUSH1 0x1 PUSH1 0xA0 SHL SUB AND CALLER DUP4 PUSH2 0x1587 JUMP JUMPDEST PUSH1 0xD SLOAD PUSH1 0x2 DUP5 ADD SLOAD DUP4 SLOAD PUSH2 0x61F SWAP2 SWAP1 PUSH2 0x1C46 JUMP JUMPDEST PUSH2 0x629 SWAP2 SWAP1 PUSH2 0x1C65 JUMP JUMPDEST PUSH1 0x1 DUP4 ADD SSTORE PUSH1 0x40 MLOAD DUP2 SWAP1 DUP6 SWAP1 CALLER SWAP1 PUSH32 0x34FCBAC0073D7C3D388E51312FAF357774904998EEB8FCA628B9E6F65EE1CBF7 SWAP1 PUSH1 0x0 SWAP1 LOG4 POP POP PUSH1 0x1 DUP1 SSTORE POP POP JUMP JUMPDEST PUSH1 0x2 PUSH1 0x1 SLOAD SUB PUSH2 0x689 JUMPI PUSH1 0x40 MLOAD PUSH3 0x461BCD PUSH1 0xE5 SHL DUP2 MSTORE PUSH1 0x4 ADD PUSH2 0x40E SWAP1 PUSH2 0x1B87 JUMP JUMPDEST PUSH1 0x2 PUSH1 0x1 SSTORE DUP2 PUSH2 0x6ED JUMPI PUSH1 0x40 MLOAD PUSH3 0x461BCD PUSH1 0xE5 SHL DUP2 MSTORE PUSH1 0x20 PUSH1 0x4 DUP3 ADD MSTORE PUSH1 0x29 PUSH1 0x24 DUP3 ADD MSTORE PUSH32 0x576974686472617720616D6F756E74206D757374206265206772656174657220 PUSH1 0x44 DUP3 ADD MSTORE PUSH9 0x7468616E207A65726F PUSH1 0xB8 SHL PUSH1 0x64 DUP3 ADD MSTORE PUSH1 0x84 ADD PUSH2 0x40E JUMP JUMPDEST PUSH1 0xC SLOAD PUSH1 0xFF AND ISZERO PUSH2 0x771 JUMPI PUSH2 0x750 PUSH1 0x9 DUP1 SLOAD DUP1 PUSH1 0x20 MUL PUSH1 0x20 ADD PUSH1 0x40 MLOAD SWAP1 DUP2 ADD PUSH1 0x40 MSTORE DUP1 SWAP3 SWAP2 SWAP1 DUP2 DUP2 MSTORE PUSH1 0x20 ADD DUP3 DUP1 SLOAD DUP1 ISZERO PUSH2 0x476 JUMPI PUSH1 0x20 MUL DUP3 ADD SWAP2 SWAP1 PUSH1 0x0 MSTORE PUSH1 0x20 PUSH1 0x0 KECCAK256 SWAP1 DUP2 SLOAD DUP2 MSTORE PUSH1 0x20 ADD SWAP1 PUSH1 0x1 ADD SWAP1 DUP1 DUP4 GT PUSH2 0x462 JUMPI POP POP POP POP POP DUP3 PUSH2 0x1481 JUMP JUMPDEST PUSH2 0x76C JUMPI PUSH1 0x40 MLOAD PUSH3 0x461BCD PUSH1 0xE5 SHL DUP2 MSTORE PUSH1 0x4 ADD PUSH2 0x40E SWAP1 PUSH2 0x1BBE JUMP JUMPDEST PUSH2 0x78F JUMP JUMPDEST DUP1 ISZERO PUSH2 0x78F JUMPI PUSH1 0x40 MLOAD PUSH3 0x461BCD PUSH1 0xE5 SHL DUP2 MSTORE PUSH1 0x4 ADD PUSH2 0x40E SWAP1 PUSH2 0x1BEE JUMP JUMPDEST PUSH1 0x0 DUP2 DUP2 MSTORE PUSH1 0xF PUSH1 0x20 SWAP1 DUP2 MSTORE PUSH1 0x40 DUP1 DUP4 KECCAK256 CALLER DUP5 MSTORE PUSH1 0x10 DUP4 MSTORE DUP2 DUP5 KECCAK256 DUP6 DUP6 MSTORE SWAP1 SWAP3 MSTORE SWAP1 SWAP2 KECCAK256 DUP1 SLOAD DUP5 GT ISZERO PUSH2 0x814 JUMPI PUSH1 0x40 MLOAD PUSH3 0x461BCD PUSH1 0xE5 SHL DUP2 MSTORE PUSH1 0x20 PUSH1 0x4 DUP3 ADD MSTORE PUSH1 0x27 PUSH1 0x24 DUP3 ADD MSTORE PUSH32 0x5769746864726177616C20616D6F756E742065786365656473207374616B6564 PUSH1 0x44 DUP3 ADD MSTORE PUSH7 0x8185B5BDD5B9D PUSH1 0xCA SHL PUSH1 0x64 DUP3 ADD MSTORE PUSH1 0x84 ADD PUSH2 0x40E JUMP JUMPDEST PUSH2 0x81D DUP4 PUSH2 0x14D4 JUMP JUMPDEST PUSH1 0x0 DUP2 PUSH1 0x1 ADD SLOAD PUSH1 0xD SLOAD DUP5 PUSH1 0x2 ADD SLOAD DUP5 PUSH1 0x0 ADD SLOAD PUSH2 0x83B SWAP2 SWAP1 PUSH2 0x1C46 JUMP JUMPDEST PUSH2 0x845 SWAP2 SWAP1 PUSH2 0x1C65 JUMP JUMPDEST PUSH2 0x84F SWAP2 SWAP1 PUSH2 0x1C87 JUMP JUMPDEST SWAP1 POP DUP1 ISZERO PUSH2 0x8E0 JUMPI PUSH1 0xC SLOAD PUSH2 0x100 SWAP1 DIV PUSH1 0xFF AND ISZERO DUP1 PUSH2 0x872 JUMPI POP TIMESTAMP DUP3 PUSH1 0x2 ADD SLOAD GT ISZERO JUMPDEST DUP1 PUSH2 0x87F JUMPI POP PUSH1 0x3 DUP4 ADD SLOAD ISZERO JUMPDEST ISZERO PUSH2 0x8A0 JUMPI PUSH1 0x4 SLOAD PUSH2 0x89B SWAP1 PUSH1 0x1 PUSH1 0x1 PUSH1 0xA0 SHL SUB AND CALLER DUP4 PUSH2 0x1587 JUMP JUMPDEST PUSH2 0x8E0 JUMP JUMPDEST PUSH1 0xE SLOAD PUSH1 0x3 DUP5 ADD SLOAD PUSH2 0x8B2 SWAP1 DUP4 PUSH2 0x1C46 JUMP JUMPDEST PUSH2 0x8BC SWAP2 SWAP1 PUSH2 0x1C65 JUMP JUMPDEST PUSH2 0x8C6 SWAP1 DUP3 PUSH2 0x1C87 JUMP JUMPDEST PUSH1 0x4 SLOAD SWAP1 SWAP2 POP PUSH2 0x8E0 SWAP1 PUSH1 0x1 PUSH1 0x1 PUSH1 0xA0 SHL SUB AND CALLER DUP4 PUSH2 0x1587 JUMP JUMPDEST DUP5 DUP4 PUSH1 0x4 ADD PUSH1 0x0 DUP3 DUP3 SLOAD PUSH2 0x8F4 SWAP2 SWAP1 PUSH2 0x1C87 JUMP JUMPDEST SWAP1 SWAP2 SSTORE POP POP DUP2 SLOAD DUP6 SWAP1 DUP4 SWAP1 PUSH1 0x0 SWAP1 PUSH2 0x90D SWAP1 DUP5 SWAP1 PUSH2 0x1C87 JUMP JUMPDEST SWAP1 SWAP2 SSTORE POP POP PUSH1 0x3 SLOAD PUSH2 0x929 SWAP1 PUSH1 0x1 PUSH1 0x1 PUSH1 0xA0 SHL SUB AND CALLER DUP8 PUSH2 0x1587 JUMP JUMPDEST PUSH1 0xD SLOAD PUSH1 0x2 DUP5 ADD SLOAD DUP4 SLOAD PUSH2 0x93D SWAP2 SWAP1 PUSH2 0x1C46 JUMP JUMPDEST PUSH2 0x947 SWAP2 SWAP1 PUSH2 0x1C65 JUMP JUMPDEST PUSH1 0x1 DUP4 ADD SSTORE PUSH1 0x40 MLOAD DUP2 DUP2 MSTORE DUP6 SWAP1 DUP6 SWAP1 CALLER SWAP1 PUSH32 0x2F25270A4D87BEA75DB541CDFE559334A275B4A233520ED6C0A2429667CCA94 SWAP1 PUSH1 0x20 ADD PUSH1 0x40 MLOAD DUP1 SWAP2 SUB SWAP1 LOG4 POP POP PUSH1 0x1 DUP1 SSTORE POP POP POP JUMP JUMPDEST PUSH1 0x0 SLOAD PUSH1 0x1 PUSH1 0x1 PUSH1 0xA0 SHL SUB AND CALLER EQ PUSH2 0x9BA JUMPI PUSH1 0x40 MLOAD PUSH3 0x461BCD PUSH1 0xE5 SHL DUP2 MSTORE PUSH1 0x4 ADD PUSH2 0x40E SWAP1 PUSH2 0x1C9E JUMP JUMPDEST PUSH2 0x9C4 PUSH1 0x0 PUSH2 0x15EF JUMP JUMPDEST JUMP JUMPDEST PUSH1 0xA DUP2 DUP2 SLOAD DUP2 LT PUSH2 0x3DB JUMPI PUSH1 0x0 DUP1 REVERT JUMPDEST PUSH1 0x2 PUSH1 0x1 SLOAD SUB PUSH2 0x9F8 JUMPI PUSH1 0x40 MLOAD PUSH3 0x461BCD PUSH1 0xE5 SHL DUP2 MSTORE PUSH1 0x4 ADD PUSH2 0x40E SWAP1 PUSH2 0x1B87 JUMP JUMPDEST PUSH1 0x2 PUSH1 0x1 SSTORE DUP2 PUSH2 0xA5B JUMPI PUSH1 0x40 MLOAD PUSH3 0x461BCD PUSH1 0xE5 SHL DUP2 MSTORE PUSH1 0x20 PUSH1 0x4 DUP3 ADD MSTORE PUSH1 0x28 PUSH1 0x24 DUP3 ADD MSTORE PUSH32 0x4465706F73697420616D6F756E74206D75737420626520677265617465722074 PUSH1 0x44 DUP3 ADD MSTORE PUSH8 0x68616E207A65726F PUSH1 0xC0 SHL PUSH1 0x64 DUP3 ADD MSTORE PUSH1 0x84 ADD PUSH2 0x40E JUMP JUMPDEST PUSH1 0xC SLOAD PUSH1 0xFF AND ISZERO PUSH2 0xADF JUMPI PUSH2 0xABE PUSH1 0x9 DUP1 SLOAD DUP1 PUSH1 0x20 MUL PUSH1 0x20 ADD PUSH1 0x40 MLOAD SWAP1 DUP2 ADD PUSH1 0x40 MSTORE DUP1 SWAP3 SWAP2 SWAP1 DUP2 DUP2 MSTORE PUSH1 0x20 ADD DUP3 DUP1 SLOAD DUP1 ISZERO PUSH2 0x476 JUMPI PUSH1 0x20 MUL DUP3 ADD SWAP2 SWAP1 PUSH1 0x0 MSTORE PUSH1 0x20 PUSH1 0x0 KECCAK256 SWAP1 DUP2 SLOAD DUP2 MSTORE PUSH1 0x20 ADD SWAP1 PUSH1 0x1 ADD SWAP1 DUP1 DUP4 GT PUSH2 0x462 JUMPI POP POP POP POP POP DUP3 PUSH2 0x1481 JUMP JUMPDEST PUSH2 0xADA JUMPI PUSH1 0x40 MLOAD PUSH3 0x461BCD PUSH1 0xE5 SHL DUP2 MSTORE PUSH1 0x4 ADD PUSH2 0x40E SWAP1 PUSH2 0x1BBE JUMP JUMPDEST PUSH2 0xAFD JUMP JUMPDEST DUP1 ISZERO PUSH2 0xAFD JUMPI PUSH1 0x40 MLOAD PUSH3 0x461BCD PUSH1 0xE5 SHL DUP2 MSTORE PUSH1 0x4 ADD PUSH2 0x40E SWAP1 PUSH2 0x1BEE JUMP JUMPDEST PUSH1 0x0 DUP2 DUP2 MSTORE PUSH1 0xF PUSH1 0x20 SWAP1 DUP2 MSTORE PUSH1 0x40 DUP1 DUP4 KECCAK256 CALLER DUP5 MSTORE PUSH1 0x10 DUP4 MSTORE DUP2 DUP5 KECCAK256 DUP6 DUP6 MSTORE SWAP1 SWAP3 MSTORE SWAP1 SWAP2 KECCAK256 PUSH2 0xB2A DUP4 PUSH2 0x14D4 JUMP JUMPDEST PUSH1 0x3 SLOAD PUSH2 0xB42 SWAP1 PUSH1 0x1 PUSH1 0x1 PUSH1 0xA0 SHL SUB AND CALLER ADDRESS DUP8 PUSH2 0x163F JUMP JUMPDEST DUP4 DUP3 PUSH1 0x4 ADD PUSH1 0x0 DUP3 DUP3 SLOAD PUSH2 0xB56 SWAP2 SWAP1 PUSH2 0x1CD3 JUMP JUMPDEST SWAP1 SWAP2 SSTORE POP POP DUP1 SLOAD DUP5 SWAP1 DUP3 SWAP1 PUSH1 0x0 SWAP1 PUSH2 0xB6F SWAP1 DUP5 SWAP1 PUSH2 0x1CD3 JUMP JUMPDEST SWAP1 SWAP2 SSTORE POP POP PUSH1 0xD SLOAD PUSH1 0x2 DUP4 ADD SLOAD DUP3 SLOAD PUSH2 0xB88 SWAP2 SWAP1 PUSH2 0x1C46 JUMP JUMPDEST PUSH2 0xB92 SWAP2 SWAP1 PUSH2 0x1C65 JUMP JUMPDEST PUSH1 0x1 DUP3 ADD SSTORE PUSH1 0xC SLOAD PUSH2 0x100 SWAP1 DIV PUSH1 0xFF AND ISZERO PUSH2 0xBC0 JUMPI PUSH2 0xBB0 DUP4 PUSH2 0x167D JUMP JUMPDEST PUSH2 0xBBA SWAP1 TIMESTAMP PUSH2 0x1CD3 JUMP JUMPDEST PUSH1 0x2 DUP3 ADD SSTORE JUMPDEST PUSH1 0x40 MLOAD DUP5 SWAP1 DUP5 SWAP1 CALLER SWAP1 PUSH32 0x90890809C654F11D6E72A28FA60149770A0D11EC6C92319D6CEB2BB0A4EA1A15 SWAP1 PUSH1 0x0 SWAP1 LOG4 POP POP PUSH1 0x1 DUP1 SSTORE POP POP JUMP JUMPDEST PUSH1 0x0 SLOAD PUSH1 0x1 PUSH1 0x1 PUSH1 0xA0 SHL SUB AND CALLER EQ PUSH2 0xC23 JUMPI PUSH1 0x40 MLOAD PUSH3 0x461BCD PUSH1 0xE5 SHL DUP2 MSTORE PUSH1 0x4 ADD PUSH2 0x40E SWAP1 PUSH2 0x1C9E JUMP JUMPDEST PUSH1 0xE DUP1 SLOAD SWAP1 DUP3 SWAP1 SSTORE PUSH1 0x40 DUP1 MLOAD DUP3 DUP2 MSTORE PUSH1 0x20 DUP2 ADD DUP5 SWAP1 MSTORE PUSH32 0x9114A560D1911EFFC47BDADC8BB95E023492EFEE2FC9CB29A3BACAA5F899132E SWAP2 ADD PUSH1 0x40 MLOAD DUP1 SWAP2 SUB SWAP1 LOG1 POP POP JUMP JUMPDEST PUSH1 0x0 SLOAD PUSH1 0x1 PUSH1 0x1 PUSH1 0xA0 SHL SUB AND CALLER EQ PUSH2 0xC92 JUMPI PUSH1 0x40 MLOAD PUSH3 0x461BCD PUSH1 0xE5 SHL DUP2 MSTORE PUSH1 0x4 ADD PUSH2 0x40E SWAP1 PUSH2 0x1C9E JUMP JUMPDEST PUSH1 0x1 PUSH1 0x1 PUSH1 0xA0 SHL SUB DUP2 AND PUSH2 0xCF7 JUMPI PUSH1 0x40 MLOAD PUSH3 0x461BCD PUSH1 0xE5 SHL DUP2 MSTORE PUSH1 0x20 PUSH1 0x4 DUP3 ADD MSTORE PUSH1 0x26 PUSH1 0x24 DUP3 ADD MSTORE PUSH32 0x4F776E61626C653A206E6577206F776E657220697320746865207A65726F2061 PUSH1 0x44 DUP3 ADD MSTORE PUSH6 0x646472657373 PUSH1 0xD0 SHL PUSH1 0x64 DUP3 ADD MSTORE PUSH1 0x84 ADD PUSH2 0x40E JUMP JUMPDEST PUSH2 0xD00 DUP2 PUSH2 0x15EF JUMP JUMPDEST POP JUMP JUMPDEST PUSH1 0x2 SLOAD PUSH1 0x1 PUSH1 0xA0 SHL SWAP1 DIV PUSH1 0xFF AND ISZERO PUSH2 0xD53 JUMPI PUSH1 0x40 MLOAD PUSH3 0x461BCD PUSH1 0xE5 SHL DUP2 MSTORE PUSH1 0x20 PUSH1 0x4 DUP3 ADD MSTORE PUSH1 0x13 PUSH1 0x24 DUP3 ADD MSTORE PUSH19 0x105B1C9958591E481A5B9A5D1A585B1A5E9959 PUSH1 0x6A SHL PUSH1 0x44 DUP3 ADD MSTORE PUSH1 0x64 ADD PUSH2 0x40E JUMP JUMPDEST PUSH1 0x2 SLOAD PUSH1 0x1 PUSH1 0x1 PUSH1 0xA0 SHL SUB AND CALLER EQ PUSH2 0xD9B JUMPI PUSH1 0x40 MLOAD PUSH3 0x461BCD PUSH1 0xE5 SHL DUP2 MSTORE PUSH1 0x20 PUSH1 0x4 DUP3 ADD MSTORE PUSH1 0xB PUSH1 0x24 DUP3 ADD MSTORE PUSH11 0x4E6F7420666163746F7279 PUSH1 0xA8 SHL PUSH1 0x44 DUP3 ADD MSTORE PUSH1 0x64 ADD PUSH2 0x40E JUMP JUMPDEST PUSH1 0x1 PUSH1 0x1 PUSH1 0xA0 SHL SUB DUP9 AND ISZERO DUP1 ISZERO SWAP1 PUSH2 0xDBB JUMPI POP PUSH1 0x1 PUSH1 0x1 PUSH1 0xA0 SHL SUB DUP8 AND ISZERO ISZERO JUMPDEST PUSH2 0xE23 JUMPI PUSH1 0x40 MLOAD PUSH3 0x461BCD PUSH1 0xE5 SHL DUP2 MSTORE PUSH1 0x20 PUSH1 0x4 DUP3 ADD MSTORE PUSH1 0x33 PUSH1 0x24 DUP3 ADD MSTORE PUSH32 0x5374616B656420746F6B656E206F722052657761726420746F6B656E2063616E PUSH1 0x44 DUP3 ADD MSTORE PUSH19 0x6E6F74206265207A65726F2061646472657373 PUSH1 0x68 SHL PUSH1 0x64 DUP3 ADD MSTORE PUSH1 0x84 ADD PUSH2 0x40E JUMP JUMPDEST DUP6 PUSH1 0x0 SUB PUSH2 0xE86 JUMPI PUSH1 0x40 MLOAD PUSH3 0x461BCD PUSH1 0xE5 SHL DUP2 MSTORE PUSH1 0x20 PUSH1 0x4 DUP3 ADD MSTORE PUSH1 0x2A PUSH1 0x24 DUP3 ADD MSTORE PUSH32 0x5265776172642050657220426C6F636B206D7573742062652067726561746572 PUSH1 0x44 DUP3 ADD MSTORE PUSH10 0x207468616E207A65726F PUSH1 0xB0 SHL PUSH1 0x64 DUP3 ADD MSTORE PUSH1 0x84 ADD PUSH2 0x40E JUMP JUMPDEST NUMBER DUP6 LT ISZERO PUSH2 0xEFC JUMPI PUSH1 0x40 MLOAD PUSH3 0x461BCD PUSH1 0xE5 SHL DUP2 MSTORE PUSH1 0x20 PUSH1 0x4 DUP3 ADD MSTORE PUSH1 0x3C PUSH1 0x24 DUP3 ADD MSTORE PUSH32 0x537461727420626C6F636B206D757374206265206168656164206F7220657175 PUSH1 0x44 DUP3 ADD MSTORE PUSH32 0x616C20746F2074686520696E697469616C697A696E6720626C6F636B00000000 PUSH1 0x64 DUP3 ADD MSTORE PUSH1 0x84 ADD PUSH2 0x40E JUMP JUMPDEST DUP5 DUP5 GT PUSH2 0xF64 JUMPI PUSH1 0x40 MLOAD PUSH3 0x461BCD PUSH1 0xE5 SHL DUP2 MSTORE PUSH1 0x20 PUSH1 0x4 DUP3 ADD MSTORE PUSH1 0x30 PUSH1 0x24 DUP3 ADD MSTORE PUSH32 0x5374616B696E6720656E642074696D65206D7573742062652067726561746572 PUSH1 0x44 DUP3 ADD MSTORE PUSH16 0x207468616E2073746172742074696D65 PUSH1 0x80 SHL PUSH1 0x64 DUP3 ADD MSTORE PUSH1 0x84 ADD PUSH2 0x40E JUMP JUMPDEST DUP2 MLOAD DUP4 MLOAD EQ PUSH2 0xFCB JUMPI PUSH1 0x40 MLOAD PUSH3 0x461BCD PUSH1 0xE5 SHL DUP2 MSTORE PUSH1 0x20 PUSH1 0x4 DUP3 ADD MSTORE PUSH1 0x2D PUSH1 0x24 DUP3 ADD MSTORE PUSH32 0x54696D6520706572696F6420616E642070656E616C7479206C656E6774687320 PUSH1 0x44 DUP3 ADD MSTORE PUSH13 0x1B5D5CDD08189948195C5D585B PUSH1 0x9A SHL PUSH1 0x64 DUP3 ADD MSTORE PUSH1 0x84 ADD PUSH2 0x40E JUMP JUMPDEST DUP3 MLOAD PUSH1 0x1 SUB PUSH2 0x1076 JUMPI DUP3 PUSH1 0x0 DUP2 MLOAD DUP2 LT PUSH2 0xFE7 JUMPI PUSH2 0xFE7 PUSH2 0x1CEB JUMP JUMPDEST PUSH1 0x20 MUL PUSH1 0x20 ADD ADD MLOAD PUSH1 0x0 SUB PUSH2 0x1076 JUMPI PUSH1 0x40 MLOAD PUSH3 0x461BCD PUSH1 0xE5 SHL DUP2 MSTORE PUSH1 0x20 PUSH1 0x4 DUP3 ADD MSTORE PUSH1 0x49 PUSH1 0x24 DUP3 ADD MSTORE PUSH32 0x54696D6520706572696F642063616E6E6F74206265207A65726F2E20456E7465 PUSH1 0x44 DUP3 ADD MSTORE PUSH32 0x7220656D70747920617272617920746F2061766F69642074696D652D62617365 PUSH1 0x64 DUP3 ADD MSTORE PUSH9 0x64207374616B696E67 PUSH1 0xB8 SHL PUSH1 0x84 DUP3 ADD MSTORE PUSH1 0xA4 ADD PUSH2 0x40E JUMP JUMPDEST PUSH1 0x2 DUP1 SLOAD PUSH1 0xFF PUSH1 0xA0 SHL NOT AND PUSH1 0x1 PUSH1 0xA0 SHL OR SWAP1 SSTORE PUSH1 0x3 DUP1 SLOAD PUSH1 0x1 PUSH1 0x1 PUSH1 0xA0 SHL SUB DUP1 DUP12 AND PUSH1 0x1 PUSH1 0x1 PUSH1 0xA0 SHL SUB NOT SWAP3 DUP4 AND OR SWAP1 SWAP3 SSTORE PUSH1 0x4 DUP1 SLOAD SWAP3 DUP11 AND SWAP3 SWAP1 SWAP2 AND SWAP2 SWAP1 SWAP2 OR SWAP1 SSTORE PUSH1 0x5 DUP7 SWAP1 SSTORE PUSH1 0x6 DUP6 SWAP1 SSTORE PUSH1 0x7 DUP5 SWAP1 SSTORE DUP3 MLOAD PUSH2 0x10DB SWAP1 PUSH1 0x9 SWAP1 PUSH1 0x20 DUP7 ADD SWAP1 PUSH2 0x192D JUMP JUMPDEST POP DUP2 MLOAD PUSH2 0x10EF SWAP1 PUSH1 0xA SWAP1 PUSH1 0x20 DUP6 ADD SWAP1 PUSH2 0x192D JUMP JUMPDEST POP PUSH1 0x0 PUSH1 0x4 PUSH1 0x0 SWAP1 SLOAD SWAP1 PUSH2 0x100 EXP SWAP1 DIV PUSH1 0x1 PUSH1 0x1 PUSH1 0xA0 SHL SUB AND PUSH1 0x1 PUSH1 0x1 PUSH1 0xA0 SHL SUB AND PUSH4 0x313CE567 PUSH1 0x40 MLOAD DUP2 PUSH4 0xFFFFFFFF AND PUSH1 0xE0 SHL DUP2 MSTORE PUSH1 0x4 ADD PUSH1 0x20 PUSH1 0x40 MLOAD DUP1 DUP4 SUB DUP2 DUP7 GAS STATICCALL ISZERO DUP1 ISZERO PUSH2 0x1145 JUMPI RETURNDATASIZE PUSH1 0x0 DUP1 RETURNDATACOPY RETURNDATASIZE PUSH1 0x0 REVERT JUMPDEST POP POP POP POP PUSH1 0x40 MLOAD RETURNDATASIZE PUSH1 0x1F NOT PUSH1 0x1F DUP3 ADD AND DUP3 ADD DUP1 PUSH1 0x40 MSTORE POP DUP2 ADD SWAP1 PUSH2 0x1169 SWAP2 SWAP1 PUSH2 0x1D01 JUMP JUMPDEST PUSH1 0xFF AND SWAP1 POP PUSH1 0x1E DUP2 LT PUSH2 0x11B5 JUMPI PUSH1 0x40 MLOAD PUSH3 0x461BCD PUSH1 0xE5 SHL DUP2 MSTORE PUSH1 0x20 PUSH1 0x4 DUP3 ADD MSTORE PUSH1 0x14 PUSH1 0x24 DUP3 ADD MSTORE PUSH20 0x4D757374206265206C657373207468616E20333 PUSH1 0x64 SHL PUSH1 0x44 DUP3 ADD MSTORE PUSH1 0x64 ADD PUSH2 0x40E JUMP JUMPDEST DUP4 MLOAD PUSH1 0x0 SUB PUSH2 0x11C9 JUMPI PUSH1 0xC DUP1 SLOAD PUSH1 0xFF NOT AND SWAP1 SSTORE JUMPDEST DUP3 MLOAD PUSH1 0x0 SUB PUSH2 0x11E2 JUMPI PUSH1 0xC DUP1 SLOAD PUSH2 0xFF00 NOT AND SWAP1 SSTORE PUSH2 0x124D JUMP JUMPDEST PUSH1 0x0 JUMPDEST DUP4 MLOAD DUP2 LT ISZERO PUSH2 0x124B JUMPI DUP4 DUP2 DUP2 MLOAD DUP2 LT PUSH2 0x1200 JUMPI PUSH2 0x1200 PUSH2 0x1CEB JUMP JUMPDEST PUSH1 0x20 MUL PUSH1 0x20 ADD ADD MLOAD PUSH1 0x0 SUB PUSH2 0x1234 JUMPI PUSH1 0x1 DUP5 MLOAD PUSH2 0x121D SWAP2 SWAP1 PUSH2 0x1C87 JUMP JUMPDEST DUP2 SUB PUSH2 0x122F JUMPI PUSH1 0xC DUP1 SLOAD PUSH2 0xFF00 NOT AND SWAP1 SSTORE JUMPDEST PUSH2 0x1239 JUMP JUMPDEST PUSH2 0x124B JUMP JUMPDEST DUP1 PUSH2 0x1243 DUP2 PUSH2 0x1D24 JUMP JUMPDEST SWAP2 POP POP PUSH2 0x11E5 JUMP JUMPDEST POP JUMPDEST PUSH1 0xC SLOAD PUSH1 0xFF AND ISZERO PUSH2 0x135D JUMPI PUSH1 0x9 SLOAD PUSH1 0x2 PUSH2 0x1268 DUP3 PUSH1 0x1 PUSH2 0x1CD3 JUMP JUMPDEST PUSH2 0x1272 SWAP1 DUP4 PUSH2 0x1C46 JUMP JUMPDEST PUSH2 0x127C SWAP2 SWAP1 PUSH2 0x1C65 JUMP JUMPDEST PUSH1 0xB SSTORE PUSH1 0x0 JUMPDEST DUP2 DUP2 LT ISZERO PUSH2 0x1356 JUMPI PUSH1 0x40 MLOAD DUP1 PUSH1 0xA0 ADD PUSH1 0x40 MSTORE DUP1 DUP3 PUSH1 0x1 PUSH2 0x12A2 SWAP2 SWAP1 PUSH2 0x1CD3 JUMP JUMPDEST DUP2 MSTORE PUSH1 0x20 ADD PUSH1 0x6 SLOAD DUP2 MSTORE PUSH1 0x20 ADD PUSH1 0x0 DUP2 MSTORE PUSH1 0x20 ADD PUSH1 0xA DUP4 DUP2 SLOAD DUP2 LT PUSH2 0x12C9 JUMPI PUSH2 0x12C9 PUSH2 0x1CEB JUMP JUMPDEST SWAP1 PUSH1 0x0 MSTORE PUSH1 0x20 PUSH1 0x0 KECCAK256 ADD SLOAD DUP2 MSTORE PUSH1 0x20 ADD PUSH1 0x0 DUP2 MSTORE POP PUSH1 0xF PUSH1 0x0 PUSH1 0x9 DUP5 DUP2 SLOAD DUP2 LT PUSH2 0x12F5 JUMPI PUSH2 0x12F5 PUSH2 0x1CEB JUMP JUMPDEST SWAP1 PUSH1 0x0 MSTORE PUSH1 0x20 PUSH1 0x0 KECCAK256 ADD SLOAD DUP2 MSTORE PUSH1 0x20 ADD SWAP1 DUP2 MSTORE PUSH1 0x20 ADD PUSH1 0x0 KECCAK256 PUSH1 0x0 DUP3 ADD MLOAD DUP2 PUSH1 0x0 ADD SSTORE PUSH1 0x20 DUP3 ADD MLOAD DUP2 PUSH1 0x1 ADD SSTORE PUSH1 0x40 DUP3 ADD MLOAD DUP2 PUSH1 0x2 ADD SSTORE PUSH1 0x60 DUP3 ADD MLOAD DUP2 PUSH1 0x3 ADD SSTORE PUSH1 0x80 DUP3 ADD MLOAD DUP2 PUSH1 0x4 ADD SSTORE SWAP1 POP POP DUP1 DUP1 PUSH2 0x134E SWAP1 PUSH2 0x1D24 JUMP JUMPDEST SWAP2 POP POP PUSH2 0x1282 JUMP JUMPDEST POP POP PUSH2 0x144E JUMP JUMPDEST PUSH1 0x1 PUSH1 0xB DUP2 SWAP1 SSTORE PUSH1 0x40 DUP1 MLOAD PUSH1 0xA0 DUP2 ADD DUP3 MSTORE SWAP2 DUP3 MSTORE PUSH1 0x6 SLOAD PUSH1 0x20 DUP1 DUP5 ADD SWAP2 DUP3 MSTORE PUSH1 0x0 SWAP3 DUP5 ADD DUP4 DUP2 MSTORE PUSH1 0x60 DUP6 ADD DUP5 DUP2 MSTORE PUSH1 0x80 DUP7 ADD DUP6 DUP2 MSTORE SWAP5 DUP1 MSTORE PUSH1 0xF SWAP1 SWAP3 MSTORE SWAP4 MLOAD PUSH32 0xF4803E074BD026BAAF6ED2E288C9515F68C72FB7216EEBDD7CAE1718A53EC375 SSTORE SWAP1 MLOAD PUSH32 0xF4803E074BD026BAAF6ED2E288C9515F68C72FB7216EEBDD7CAE1718A53EC376 SSTORE SWAP2 MLOAD PUSH32 0xF4803E074BD026BAAF6ED2E288C9515F68C72FB7216EEBDD7CAE1718A53EC377 SSTORE SWAP1 MLOAD PUSH32 0xF4803E074BD026BAAF6ED2E288C9515F68C72FB7216EEBDD7CAE1718A53EC378 SSTORE MLOAD PUSH32 0xF4803E074BD026BAAF6ED2E288C9515F68C72FB7216EEBDD7CAE1718A53EC379 SSTORE JUMPDEST PUSH2 0x1459 DUP2 PUSH1 0x1E PUSH2 0x1C87 JUMP JUMPDEST PUSH2 0x1464 SWAP1 PUSH1 0xA PUSH2 0x1E21 JUMP JUMPDEST PUSH1 0xD SSTORE PUSH1 0x6 SLOAD PUSH1 0x8 SSTORE PUSH2 0x1476 DUP3 PUSH2 0xC68 JUMP JUMPDEST POP POP POP POP POP POP POP POP POP JUMP JUMPDEST PUSH1 0x0 DUP1 DUP1 JUMPDEST DUP5 MLOAD DUP2 LT ISZERO PUSH2 0x14CA JUMPI DUP4 DUP6 DUP3 DUP2 MLOAD DUP2 LT PUSH2 0x14A2 JUMPI PUSH2 0x14A2 PUSH2 0x1CEB JUMP JUMPDEST PUSH1 0x20 MUL PUSH1 0x20 ADD ADD MLOAD SUB PUSH2 0x14B8 JUMPI PUSH1 0x1 SWAP2 POP PUSH2 0x14CA JUMP JUMPDEST DUP1 PUSH2 0x14C2 DUP2 PUSH2 0x1D24 JUMP JUMPDEST SWAP2 POP POP PUSH2 0x1486 JUMP JUMPDEST POP SWAP1 POP JUMPDEST SWAP3 SWAP2 POP POP JUMP JUMPDEST PUSH1 0x0 DUP2 DUP2 MSTORE PUSH1 0xF PUSH1 0x20 MSTORE PUSH1 0x40 SWAP1 KECCAK256 PUSH1 0x1 DUP2 ADD SLOAD NUMBER GT PUSH2 0x14F1 JUMPI POP POP JUMP JUMPDEST PUSH1 0x4 DUP2 ADD SLOAD PUSH1 0x0 DUP2 SWAP1 SUB PUSH2 0x150A JUMPI POP NUMBER PUSH1 0x1 SWAP1 SWAP2 ADD SSTORE POP JUMP JUMPDEST PUSH1 0x0 PUSH2 0x151A DUP4 PUSH1 0x1 ADD SLOAD NUMBER PUSH2 0x16A8 JUMP JUMPDEST PUSH1 0xB SLOAD DUP5 SLOAD PUSH1 0x5 SLOAD SWAP3 SWAP4 POP PUSH1 0x0 SWAP3 PUSH2 0x1532 SWAP1 DUP6 PUSH2 0x1C46 JUMP JUMPDEST PUSH2 0x153C SWAP2 SWAP1 PUSH2 0x1C46 JUMP JUMPDEST PUSH2 0x1546 SWAP2 SWAP1 PUSH2 0x1C65 JUMP JUMPDEST SWAP1 POP DUP3 PUSH1 0xD SLOAD DUP3 PUSH2 0x1557 SWAP2 SWAP1 PUSH2 0x1C46 JUMP JUMPDEST PUSH2 0x1561 SWAP2 SWAP1 PUSH2 0x1C65 JUMP JUMPDEST DUP5 PUSH1 0x2 ADD SLOAD PUSH2 0x1570 SWAP2 SWAP1 PUSH2 0x1CD3 JUMP JUMPDEST PUSH1 0x2 DUP6 ADD SSTORE POP POP NUMBER PUSH1 0x1 SWAP1 SWAP3 ADD DUP3 SWAP1 SSTORE POP PUSH1 0x8 SSTORE POP JUMP JUMPDEST PUSH1 0x40 MLOAD PUSH1 0x1 PUSH1 0x1 PUSH1 0xA0 SHL SUB DUP4 AND PUSH1 0x24 DUP3 ADD MSTORE PUSH1 0x44 DUP2 ADD DUP3 SWAP1 MSTORE PUSH2 0x15EA SWAP1 DUP5 SWAP1 PUSH4 0xA9059CBB PUSH1 0xE0 SHL SWAP1 PUSH1 0x64 ADD JUMPDEST PUSH1 0x40 DUP1 MLOAD PUSH1 0x1F NOT DUP2 DUP5 SUB ADD DUP2 MSTORE SWAP2 SWAP1 MSTORE PUSH1 0x20 DUP2 ADD DUP1 MLOAD PUSH1 0x1 PUSH1 0x1 PUSH1 0xE0 SHL SUB AND PUSH1 0x1 PUSH1 0x1 PUSH1 0xE0 SHL SUB NOT SWAP1 SWAP4 AND SWAP3 SWAP1 SWAP3 OR SWAP1 SWAP2 MSTORE PUSH2 0x16E3 JUMP JUMPDEST POP POP POP JUMP JUMPDEST PUSH1 0x0 DUP1 SLOAD PUSH1 0x1 PUSH1 0x1 PUSH1 0xA0 SHL SUB DUP4 DUP2 AND PUSH1 0x1 PUSH1 0x1 PUSH1 0xA0 SHL SUB NOT DUP4 AND DUP2 OR DUP5 SSTORE PUSH1 0x40 MLOAD SWAP2 SWAP1 SWAP3 AND SWAP3 DUP4 SWAP2 PUSH32 0x8BE0079C531659141344CD1FD0A4F28419497F9722A3DAAFE3B4186F6B6457E0 SWAP2 SWAP1 LOG3 POP POP JUMP JUMPDEST PUSH1 0x40 MLOAD PUSH1 0x1 PUSH1 0x1 PUSH1 0xA0 SHL SUB DUP1 DUP6 AND PUSH1 0x24 DUP4 ADD MSTORE DUP4 AND PUSH1 0x44 DUP3 ADD MSTORE PUSH1 0x64 DUP2 ADD DUP3 SWAP1 MSTORE PUSH2 0x1677 SWAP1 DUP6 SWAP1 PUSH4 0x23B872DD PUSH1 0xE0 SHL SWAP1 PUSH1 0x84 ADD PUSH2 0x15B3 JUMP JUMPDEST POP POP POP POP JUMP JUMPDEST PUSH1 0x0 DUP1 PUSH2 0x168B DUP4 PUSH1 0x18 PUSH2 0x1C46 JUMP JUMPDEST PUSH2 0x1696 SWAP1 PUSH1 0x3C PUSH2 0x1C46 JUMP JUMPDEST PUSH2 0x16A1 SWAP1 PUSH1 0x3C PUSH2 0x1C46 JUMP JUMPDEST SWAP4 SWAP3 POP POP POP JUMP JUMPDEST PUSH1 0x0 PUSH1 0x7 SLOAD DUP3 GT PUSH2 0x16C4 JUMPI PUSH2 0x16BD DUP4 DUP4 PUSH2 0x1C87 JUMP JUMPDEST SWAP1 POP PUSH2 0x14CE JUMP JUMPDEST PUSH1 0x7 SLOAD DUP4 LT PUSH2 0x16D5 JUMPI POP PUSH1 0x0 PUSH2 0x14CE JUMP JUMPDEST DUP3 PUSH1 0x7 SLOAD PUSH2 0x16A1 SWAP2 SWAP1 PUSH2 0x1C87 JUMP JUMPDEST PUSH1 0x0 PUSH2 0x1738 DUP3 PUSH1 0x40 MLOAD DUP1 PUSH1 0x40 ADD PUSH1 0x40 MSTORE DUP1 PUSH1 0x20 DUP2 MSTORE PUSH1 0x20 ADD PUSH32 0x5361666545524332303A206C6F772D6C6576656C2063616C6C206661696C6564 DUP2 MSTORE POP DUP6 PUSH1 0x1 PUSH1 0x1 PUSH1 0xA0 SHL SUB AND PUSH2 0x17B5 SWAP1 SWAP3 SWAP2 SWAP1 PUSH4 0xFFFFFFFF AND JUMP JUMPDEST DUP1 MLOAD SWAP1 SWAP2 POP ISZERO PUSH2 0x15EA JUMPI DUP1 DUP1 PUSH1 0x20 ADD SWAP1 MLOAD DUP2 ADD SWAP1 PUSH2 0x1756 SWAP2 SWAP1 PUSH2 0x1E2D JUMP JUMPDEST PUSH2 0x15EA JUMPI PUSH1 0x40 MLOAD PUSH3 0x461BCD PUSH1 0xE5 SHL DUP2 MSTORE PUSH1 0x20 PUSH1 0x4 DUP3 ADD MSTORE PUSH1 0x2A PUSH1 0x24 DUP3 ADD MSTORE PUSH32 0x5361666545524332303A204552433230206F7065726174696F6E20646964206E PUSH1 0x44 DUP3 ADD MSTORE PUSH10 0x1BDD081CDD58D8D95959 PUSH1 0xB2 SHL PUSH1 0x64 DUP3 ADD MSTORE PUSH1 0x84 ADD PUSH2 0x40E JUMP JUMPDEST PUSH1 0x60 PUSH2 0x17C4 DUP5 DUP5 PUSH1 0x0 DUP6 PUSH2 0x17CC JUMP JUMPDEST SWAP5 SWAP4 POP POP POP POP JUMP JUMPDEST PUSH1 0x60 DUP3 SELFBALANCE LT ISZERO PUSH2 0x182D JUMPI PUSH1 0x40 MLOAD PUSH3 0x461BCD PUSH1 0xE5 SHL DUP2 MSTORE PUSH1 0x20 PUSH1 0x4 DUP3 ADD MSTORE PUSH1 0x26 PUSH1 0x24 DUP3 ADD MSTORE PUSH32 0x416464726573733A20696E73756666696369656E742062616C616E636520666F PUSH1 0x44 DUP3 ADD MSTORE PUSH6 0x1C8818D85B1B PUSH1 0xD2 SHL PUSH1 0x64 DUP3 ADD MSTORE PUSH1 0x84 ADD PUSH2 0x40E JUMP JUMPDEST DUP5 EXTCODESIZE PUSH2 0x187B JUMPI PUSH1 0x40 MLOAD PUSH3 0x461BCD PUSH1 0xE5 SHL DUP2 MSTORE PUSH1 0x20 PUSH1 0x4 DUP3 ADD MSTORE PUSH1 0x1D PUSH1 0x24 DUP3 ADD MSTORE PUSH32 0x416464726573733A2063616C6C20746F206E6F6E2D636F6E7472616374000000 PUSH1 0x44 DUP3 ADD MSTORE PUSH1 0x64 ADD PUSH2 0x40E JUMP JUMPDEST PUSH1 0x0 DUP1 DUP7 PUSH1 0x1 PUSH1 0x1 PUSH1 0xA0 SHL SUB AND DUP6 DUP8 PUSH1 0x40 MLOAD PUSH2 0x1897 SWAP2 SWAP1 PUSH2 0x1E7B JUMP JUMPDEST PUSH1 0x0 PUSH1 0x40 MLOAD DUP1 DUP4 SUB DUP2 DUP6 DUP8 GAS CALL SWAP3 POP POP POP RETURNDATASIZE DUP1 PUSH1 0x0 DUP2 EQ PUSH2 0x18D4 JUMPI PUSH1 0x40 MLOAD SWAP2 POP PUSH1 0x1F NOT PUSH1 0x3F RETURNDATASIZE ADD AND DUP3 ADD PUSH1 0x40 MSTORE RETURNDATASIZE DUP3 MSTORE RETURNDATASIZE PUSH1 0x0 PUSH1 0x20 DUP5 ADD RETURNDATACOPY PUSH2 0x18D9 JUMP JUMPDEST PUSH1 0x60 SWAP2 POP JUMPDEST POP SWAP2 POP SWAP2 POP PUSH2 0x18E9 DUP3 DUP3 DUP7 PUSH2 0x18F4 JUMP JUMPDEST SWAP8 SWAP7 POP POP POP POP POP POP POP JUMP JUMPDEST PUSH1 0x60 DUP4 ISZERO PUSH2 0x1903 JUMPI POP DUP2 PUSH2 0x16A1 JUMP JUMPDEST DUP3 MLOAD ISZERO PUSH2 0x1913 JUMPI DUP3 MLOAD DUP1 DUP5 PUSH1 0x20 ADD REVERT JUMPDEST DUP2 PUSH1 0x40 MLOAD PUSH3 0x461BCD PUSH1 0xE5 SHL DUP2 MSTORE PUSH1 0x4 ADD PUSH2 0x40E SWAP2 SWAP1 PUSH2 0x1E97 JUMP JUMPDEST DUP3 DUP1 SLOAD DUP3 DUP3 SSTORE SWAP1 PUSH1 0x0 MSTORE PUSH1 0x20 PUSH1 0x0 KECCAK256 SWAP1 DUP2 ADD SWAP3 DUP3 ISZERO PUSH2 0x1968 JUMPI SWAP2 PUSH1 0x20 MUL DUP3 ADD JUMPDEST DUP3 DUP2 GT ISZERO PUSH2 0x1968 JUMPI DUP3 MLOAD DUP3 SSTORE SWAP2 PUSH1 0x20 ADD SWAP2 SWAP1 PUSH1 0x1 ADD SWAP1 PUSH2 0x194D JUMP JUMPDEST POP PUSH2 0x1974 SWAP3 SWAP2 POP PUSH2 0x1978 JUMP JUMPDEST POP SWAP1 JUMP JUMPDEST JUMPDEST DUP1 DUP3 GT ISZERO PUSH2 0x1974 JUMPI PUSH1 0x0 DUP2 SSTORE PUSH1 0x1 ADD PUSH2 0x1979 JUMP JUMPDEST PUSH1 0x0 PUSH1 0x20 DUP3 DUP5 SUB SLT ISZERO PUSH2 0x199F JUMPI PUSH1 0x0 DUP1 REVERT JUMPDEST POP CALLDATALOAD SWAP2 SWAP1 POP JUMP JUMPDEST PUSH1 0x1 PUSH1 0x1 PUSH1 0xA0 SHL SUB DUP2 AND DUP2 EQ PUSH2 0xD00 JUMPI PUSH1 0x0 DUP1 REVERT JUMPDEST PUSH1 0x0 DUP1 PUSH1 0x40 DUP4 DUP6 SUB SLT ISZERO PUSH2 0x19CE JUMPI PUSH1 0x0 DUP1 REVERT JUMPDEST DUP3 CALLDATALOAD PUSH2 0x19D9 DUP2 PUSH2 0x19A6 JUMP JUMPDEST SWAP5 PUSH1 0x20 SWAP4 SWAP1 SWAP4 ADD CALLDATALOAD SWAP4 POP POP POP JUMP JUMPDEST PUSH1 0x0 DUP1 PUSH1 0x40 DUP4 DUP6 SUB SLT ISZERO PUSH2 0x19FA JUMPI PUSH1 0x0 DUP1 REVERT JUMPDEST POP POP DUP1 CALLDATALOAD SWAP3 PUSH1 0x20 SWAP1 SWAP2 ADD CALLDATALOAD SWAP2 POP JUMP JUMPDEST PUSH1 0x0 PUSH1 0x20 DUP3 DUP5 SUB SLT ISZERO PUSH2 0x1A1B JUMPI PUSH1 0x0 DUP1 REVERT JUMPDEST DUP2 CALLDATALOAD PUSH2 0x16A1 DUP2 PUSH2 0x19A6 JUMP JUMPDEST PUSH4 0x4E487B71 PUSH1 0xE0 SHL PUSH1 0x0 MSTORE PUSH1 0x41 PUSH1 0x4 MSTORE PUSH1 0x24 PUSH1 0x0 REVERT JUMPDEST PUSH1 0x0 DUP3 PUSH1 0x1F DUP4 ADD SLT PUSH2 0x1A4D JUMPI PUSH1 0x0 DUP1 REVERT JUMPDEST DUP2 CALLDATALOAD PUSH1 0x20 PUSH8 0xFFFFFFFFFFFFFFFF DUP1 DUP4 GT ISZERO PUSH2 0x1A6A JUMPI PUSH2 0x1A6A PUSH2 0x1A26 JUMP JUMPDEST DUP3 PUSH1 0x5 SHL PUSH1 0x40 MLOAD PUSH1 0x1F NOT PUSH1 0x3F DUP4 ADD AND DUP2 ADD DUP2 DUP2 LT DUP5 DUP3 GT OR ISZERO PUSH2 0x1A8F JUMPI PUSH2 0x1A8F PUSH2 0x1A26 JUMP JUMPDEST PUSH1 0x40 MSTORE SWAP4 DUP5 MSTORE DUP6 DUP2 ADD DUP4 ADD SWAP4 DUP4 DUP2 ADD SWAP3 POP DUP8 DUP6 GT ISZERO PUSH2 0x1AAD JUMPI PUSH1 0x0 DUP1 REVERT JUMPDEST DUP4 DUP8 ADD SWAP2 POP JUMPDEST DUP5 DUP3 LT ISZERO PUSH2 0x18E9 JUMPI DUP2 CALLDATALOAD DUP4 MSTORE SWAP2 DUP4 ADD SWAP2 SWAP1 DUP4 ADD SWAP1 PUSH2 0x1AB3 JUMP JUMPDEST PUSH1 0x0 DUP1 PUSH1 0x0 DUP1 PUSH1 0x0 DUP1 PUSH1 0x0 DUP1 PUSH2 0x100 DUP10 DUP12 SUB SLT ISZERO PUSH2 0x1AE9 JUMPI PUSH1 0x0 DUP1 REVERT JUMPDEST DUP9 CALLDATALOAD PUSH2 0x1AF4 DUP2 PUSH2 0x19A6 JUMP JUMPDEST SWAP8 POP PUSH1 0x20 DUP10 ADD CALLDATALOAD PUSH2 0x1B04 DUP2 PUSH2 0x19A6 JUMP JUMPDEST SWAP7 POP PUSH1 0x40 DUP10 ADD CALLDATALOAD SWAP6 POP PUSH1 0x60 DUP10 ADD CALLDATALOAD SWAP5 POP PUSH1 0x80 DUP10 ADD CALLDATALOAD SWAP4 POP PUSH1 0xA0 DUP10 ADD CALLDATALOAD PUSH8 0xFFFFFFFFFFFFFFFF DUP1 DUP3 GT ISZERO PUSH2 0x1B36 JUMPI PUSH1 0x0 DUP1 REVERT JUMPDEST PUSH2 0x1B42 DUP13 DUP4 DUP14 ADD PUSH2 0x1A3C JUMP JUMPDEST SWAP5 POP PUSH1 0xC0 DUP12 ADD CALLDATALOAD SWAP2 POP DUP1 DUP3 GT ISZERO PUSH2 0x1B58 JUMPI PUSH1 0x0 DUP1 REVERT JUMPDEST POP PUSH2 0x1B65 DUP12 DUP3 DUP13 ADD PUSH2 0x1A3C JUMP JUMPDEST SWAP3 POP POP PUSH1 0xE0 DUP10 ADD CALLDATALOAD PUSH2 0x1B76 DUP2 PUSH2 0x19A6 JUMP JUMPDEST DUP1 SWAP2 POP POP SWAP3 SWAP6 SWAP9 POP SWAP3 SWAP6 SWAP9 SWAP1 SWAP4 SWAP7 POP JUMP JUMPDEST PUSH1 0x20 DUP1 DUP3 MSTORE PUSH1 0x1F SWAP1 DUP3 ADD MSTORE PUSH32 0x5265656E7472616E637947756172643A207265656E7472616E742063616C6C00 PUSH1 0x40 DUP3 ADD MSTORE PUSH1 0x60 ADD SWAP1 JUMP JUMPDEST PUSH1 0x20 DUP1 DUP3 MSTORE PUSH1 0x16 SWAP1 DUP3 ADD MSTORE PUSH22 0x125B9D985B1A59081CDD185ADA5B99C81C195C9A5BD9 PUSH1 0x52 SHL PUSH1 0x40 DUP3 ADD MSTORE PUSH1 0x60 ADD SWAP1 JUMP JUMPDEST PUSH1 0x20 DUP1 DUP3 MSTORE PUSH1 0x22 SWAP1 DUP3 ADD MSTORE PUSH32 0x496E76616C6964207374616B696E6720706572696F642C20656E746572207A65 PUSH1 0x40 DUP3 ADD MSTORE PUSH2 0x726F PUSH1 0xF0 SHL PUSH1 0x60 DUP3 ADD MSTORE PUSH1 0x80 ADD SWAP1 JUMP JUMPDEST PUSH4 0x4E487B71 PUSH1 0xE0 SHL PUSH1 0x0 MSTORE PUSH1 0x11 PUSH1 0x4 MSTORE PUSH1 0x24 PUSH1 0x0 REVERT JUMPDEST PUSH1 0x0 DUP2 PUSH1 0x0 NOT DIV DUP4 GT DUP3 ISZERO ISZERO AND ISZERO PUSH2 0x1C60 JUMPI PUSH2 0x1C60 PUSH2 0x1C30 JUMP JUMPDEST POP MUL SWAP1 JUMP JUMPDEST PUSH1 0x0 DUP3 PUSH2 0x1C82 JUMPI PUSH4 0x4E487B71 PUSH1 0xE0 SHL PUSH1 0x0 MSTORE PUSH1 0x12 PUSH1 0x4 MSTORE PUSH1 0x24 PUSH1 0x0 REVERT JUMPDEST POP DIV SWAP1 JUMP JUMPDEST PUSH1 0x0 DUP3 DUP3 LT ISZERO PUSH2 0x1C99 JUMPI PUSH2 0x1C99 PUSH2 0x1C30 JUMP JUMPDEST POP SUB SWAP1 JUMP JUMPDEST PUSH1 0x20 DUP1 DUP3 MSTORE DUP2 DUP2 ADD MSTORE PUSH32 0x4F776E61626C653A2063616C6C6572206973206E6F7420746865206F776E6572 PUSH1 0x40 DUP3 ADD MSTORE PUSH1 0x60 ADD SWAP1 JUMP JUMPDEST PUSH1 0x0 DUP3 NOT DUP3 GT ISZERO PUSH2 0x1CE6 JUMPI PUSH2 0x1CE6 PUSH2 0x1C30 JUMP JUMPDEST POP ADD SWAP1 JUMP JUMPDEST PUSH4 0x4E487B71 PUSH1 0xE0 SHL PUSH1 0x0 MSTORE PUSH1 0x32 PUSH1 0x4 MSTORE PUSH1 0x24 PUSH1 0x0 REVERT JUMPDEST PUSH1 0x0 PUSH1 0x20 DUP3 DUP5 SUB SLT ISZERO PUSH2 0x1D13 JUMPI PUSH1 0x0 DUP1 REVERT JUMPDEST DUP2 MLOAD PUSH1 0xFF DUP2 AND DUP2 EQ PUSH2 0x16A1 JUMPI PUSH1 0x0 DUP1 REVERT JUMPDEST PUSH1 0x0 PUSH1 0x1 DUP3 ADD PUSH2 0x1D36 JUMPI PUSH2 0x1D36 PUSH2 0x1C30 JUMP JUMPDEST POP PUSH1 0x1 ADD SWAP1 JUMP JUMPDEST PUSH1 0x1 DUP2 DUP2 JUMPDEST DUP1 DUP6 GT ISZERO PUSH2 0x1D78 JUMPI DUP2 PUSH1 0x0 NOT DIV DUP3 GT ISZERO PUSH2 0x1D5E JUMPI PUSH2 0x1D5E PUSH2 0x1C30 JUMP JUMPDEST DUP1 DUP6 AND ISZERO PUSH2 0x1D6B JUMPI SWAP2 DUP2 MUL SWAP2 JUMPDEST SWAP4 DUP5 SHR SWAP4 SWAP1 DUP1 MUL SWAP1 PUSH2 0x1D42 JUMP JUMPDEST POP SWAP3 POP SWAP3 SWAP1 POP JUMP JUMPDEST PUSH1 0x0 DUP3 PUSH2 0x1D8F JUMPI POP PUSH1 0x1 PUSH2 0x14CE JUMP JUMPDEST DUP2 PUSH2 0x1D9C JUMPI POP PUSH1 0x0 PUSH2 0x14CE JUMP JUMPDEST DUP2 PUSH1 0x1 DUP2 EQ PUSH2 0x1DB2 JUMPI PUSH1 0x2 DUP2 EQ PUSH2 0x1DBC JUMPI PUSH2 0x1DD8 JUMP JUMPDEST PUSH1 0x1 SWAP2 POP POP PUSH2 0x14CE JUMP JUMPDEST PUSH1 0xFF DUP5 GT ISZERO PUSH2 0x1DCD JUMPI PUSH2 0x1DCD PUSH2 0x1C30 JUMP JUMPDEST POP POP PUSH1 0x1 DUP3 SHL PUSH2 0x14CE JUMP JUMPDEST POP PUSH1 0x20 DUP4 LT PUSH2 0x133 DUP4 LT AND PUSH1 0x4E DUP5 LT PUSH1 0xB DUP5 LT AND OR ISZERO PUSH2 0x1DFB JUMPI POP DUP2 DUP2 EXP PUSH2 0x14CE JUMP JUMPDEST PUSH2 0x1E05 DUP4 DUP4 PUSH2 0x1D3D JUMP JUMPDEST DUP1 PUSH1 0x0 NOT DIV DUP3 GT ISZERO PUSH2 0x1E19 JUMPI PUSH2 0x1E19 PUSH2 0x1C30 JUMP JUMPDEST MUL SWAP4 SWAP3 POP POP POP JUMP JUMPDEST PUSH1 0x0 PUSH2 0x16A1 DUP4 DUP4 PUSH2 0x1D80 JUMP JUMPDEST PUSH1 0x0 PUSH1 0x20 DUP3 DUP5 SUB SLT ISZERO PUSH2 0x1E3F JUMPI PUSH1 0x0 DUP1 REVERT JUMPDEST DUP2 MLOAD DUP1 ISZERO ISZERO DUP2 EQ PUSH2 0x16A1 JUMPI PUSH1 0x0 DUP1 REVERT JUMPDEST PUSH1 0x0 JUMPDEST DUP4 DUP2 LT ISZERO PUSH2 0x1E6A JUMPI DUP2 DUP2 ADD MLOAD DUP4 DUP3 ADD MSTORE PUSH1 0x20 ADD PUSH2 0x1E52 JUMP JUMPDEST DUP4 DUP2 GT ISZERO PUSH2 0x1677 JUMPI POP POP PUSH1 0x0 SWAP2 ADD MSTORE JUMP JUMPDEST PUSH1 0x0 DUP3 MLOAD PUSH2 0x1E8D DUP2 DUP5 PUSH1 0x20 DUP8 ADD PUSH2 0x1E4F JUMP JUMPDEST SWAP2 SWAP1 SWAP2 ADD SWAP3 SWAP2 POP POP JUMP JUMPDEST PUSH1 0x20 DUP2 MSTORE PUSH1 0x0 DUP3 MLOAD DUP1 PUSH1 0x20 DUP5 ADD MSTORE PUSH2 0x1EB6 DUP2 PUSH1 0x40 DUP6 ADD PUSH1 0x20 DUP8 ADD PUSH2 0x1E4F JUMP JUMPDEST PUSH1 0x1F ADD PUSH1 0x1F NOT AND SWAP2 SWAP1 SWAP2 ADD PUSH1 0x40 ADD SWAP3 SWAP2 POP POP JUMP INVALID LOG2 PUSH5 0x6970667358 0x22 SLT KECCAK256 PUSH6 0x3D1D2D52D1E7 PUSH1 0x77 0xBD JUMP ADD OR 0xAC 0xCE 0x24 0xD2 DUP2 BALANCE 0x26 0xBE 0xA5 PC PC SWAP9 PUSH4 0x7BED2462 0xF PUSH27 0x64736F6C634300080D003300000000000000000000000000000000 ",
    "sha1": "4ea1e614b467f1a7a72b435568b1eba0987da800",
    "source": "// SPDX-License-Identifier: UNLICENSED\n\npragma solidity ^0.8.13;\n\ninterface IERC20 {\n    /**\n     * @dev Returns the amount of tokens in existence.\n     */\n    function totalSupply() external view returns (uint256);\n\n    /**\n     * @dev Returns the amount of tokens owned by `account`.\n     */\n    function balanceOf(address account) external view returns (uint256);\n\n    /**\n     * @dev Moves `amount` tokens from the caller's account to `recipient`.\n     *\n     * Returns a boolean value indicating whether the operation succeeded.\n     *\n     * Emits a {Transfer} event.\n     */\n    function transfer(address recipient, uint256 amount)\n        external\n        returns (bool);\n\n    /**\n     * @dev Returns the remaining number of tokens that `spender` will be\n     * allowed to spend on behalf of `owner` through {transferFrom}. This is\n     * zero by default.\n     *\n     * This value changes when {approve} or {transferFrom} are called.\n     */\n    function allowance(address owner, address spender)\n        external\n        view\n        returns (uint256);\n\n    /**\n     * @dev Sets `amount` as the allowance of `spender` over the caller's tokens.\n     *\n     * Returns a boolean value indicating whether the operation succeeded.\n     *\n     * IMPORTANT: Beware that changing an allowance with this method brings the risk\n     * that someone may use both the old and the new allowance by unfortunate\n     * transaction ordering. One possible solution to mitigate this race\n     * condition is to first reduce the spender's allowance to 0 and set the\n     * desired value afterwards:\n     * https://github.com/ethereum/EIPs/issues/20#issuecomment-263524729\n     *\n     * Emits an {Approval} event.\n     */\n    function approve(address spender, uint256 amount) external returns (bool);\n\n    /**\n     * @dev Moves `amount` tokens from `sender` to `recipient` using the\n     * allowance mechanism. `amount` is then deducted from the caller's\n     * allowance.\n     *\n     * Returns a boolean value indicating whether the operation succeeded.\n     *\n     * Emits a {Transfer} event.\n     */\n    function transferFrom(\n        address sender,\n        address recipient,\n        uint256 amount\n    ) external returns (bool);\n\n    /**\n     * @dev Emitted when `value` tokens are moved from one account (`from`) to\n     * another (`to`).\n     *\n     * Note that `value` may be zero.\n     */\n    event Transfer(address indexed from, address indexed to, uint256 value);\n\n    /**\n     * @dev Emitted when the allowance of a `spender` for an `owner` is set by\n     * a call to {approve}. `value` is the new allowance.\n     */\n    event Approval(\n        address indexed owner,\n        address indexed spender,\n        uint256 value\n    );\n}\n\n/**\n * @dev Interface for the optional metadata functions from the ERC20 standard.\n *\n * _Available since v4.1._\n */\ninterface IERC20Metadata is IERC20 {\n    /**\n     * @dev Returns the name of the token.\n     */\n    function name() external view returns (string memory);\n\n    /**\n     * @dev Returns the symbol of the token.\n     */\n    function symbol() external view returns (string memory);\n\n    /**\n     * @dev Returns the decimals places of the token.\n     */\n    function decimals() external view returns (uint8);\n}\n\n/*\n * @dev Provides information about the current execution context, including the\n * sender of the transaction and its data. While these are generally available\n * via msg.sender and msg.data, they should not be accessed in such a direct\n * manner, since when dealing with meta-transactions the account sending and\n * paying for execution may not be the actual sender (as far as an application\n * is concerned).\n *\n * This contract is only required for intermediate, library-like contracts.\n */\nabstract contract Context {\n    function _msgSender() internal view virtual returns (address) {\n        return msg.sender;\n    }\n\n    function _msgData() internal view virtual returns (bytes calldata) {\n        return msg.data;\n    }\n}\n\n// File: @openzeppelin/contracts/access/Ownable.sol\n\nabstract contract Ownable is Context {\n    address private _owner;\n\n    event OwnershipTransferred(\n        address indexed previousOwner,\n        address indexed newOwner\n    );\n\n    /**\n     * @dev Initializes the contract setting the deployer as the initial owner.\n     */\n    constructor() {\n        _setOwner(_msgSender());\n    }\n\n    /**\n     * @dev Returns the address of the current owner.\n     */\n    function owner() public view virtual returns (address) {\n        return _owner;\n    }\n\n    /**\n     * @dev Throws if called by any account other than the owner.\n     */\n    modifier onlyOwner() {\n        require(owner() == _msgSender(), \"Ownable: caller is not the owner\");\n        _;\n    }\n\n    /**\n     * @dev Leaves the contract without owner. It will not be possible to call\n     * `onlyOwner` functions anymore. Can only be called by the current owner.\n     *\n     * NOTE: Renouncing ownership will leave the contract without an owner,\n     * thereby removing any functionality that is only available to the owner.\n     */\n    function renounceOwnership() public virtual onlyOwner {\n        _setOwner(address(0));\n    }\n\n    /**\n     * @dev Transfers ownership of the contract to a new account (`newOwner`).\n     * Can only be called by the current owner.\n     */\n    function transferOwnership(address newOwner) public virtual onlyOwner {\n        require(\n            newOwner != address(0),\n            \"Ownable: new owner is the zero address\"\n        );\n        _setOwner(newOwner);\n    }\n\n    function _setOwner(address newOwner) private {\n        address oldOwner = _owner;\n        _owner = newOwner;\n        emit OwnershipTransferred(oldOwner, newOwner);\n    }\n}\n\n// File: @openzeppelin/contracts/utils/ReentrancyGuard.sol\n\n/**\n * @dev Contract module that helps prevent reentrant calls to a function.\n *\n * Inheriting from `ReentrancyGuard` will make the {nonReentrant} modifier\n * available, which can be applied to functions to make sure there are no nested\n * (reentrant) calls to them.\n *\n * Note that because there is a single `nonReentrant` guard, functions marked as\n * `nonReentrant` may not call one another. This can be worked around by making\n * those functions `private`, and then adding `external` `nonReentrant` entry\n * points to them.\n *\n * TIP: If you would like to learn more about reentrancy and alternative ways\n * to protect against it, check out our blog post\n * https://blog.openzeppelin.com/reentrancy-after-istanbul/[Reentrancy After Istanbul].\n */\nabstract contract ReentrancyGuard {\n    // Booleans are more expensive than uint256 or any type that takes up a full\n    // word because each write operation emits an extra SLOAD to first read the\n    // slot's contents, replace the bits taken up by the boolean, and then write\n    // back. This is the compiler's defense against contract upgrades and\n    // pointer aliasing, and it cannot be disabled.\n\n    // The values being non-zero value makes deployment a bit more expensive,\n    // but in exchange the refund on every call to nonReentrant will be lower in\n    // amount. Since refunds are capped to a percentage of the total\n    // transaction's gas, it is best to keep them low in cases like this one, to\n    // increase the likelihood of the full refund coming into effect.\n    uint256 private constant _NOT_ENTERED = 1;\n    uint256 private constant _ENTERED = 2;\n\n    uint256 private _status;\n\n    constructor() {\n        _status = _NOT_ENTERED;\n    }\n\n    /**\n     * @dev Prevents a contract from calling itself, directly or indirectly.\n     * Calling a `nonReentrant` function from another `nonReentrant`\n     * function is not supported. It is possible to prevent this from happening\n     * by making the `nonReentrant` function external, and make it call a\n     * `private` function that does the actual work.\n     */\n    modifier nonReentrant() {\n        // On the first call to nonReentrant, _notEntered will be true\n        require(_status != _ENTERED, \"ReentrancyGuard: reentrant call\");\n\n        // Any calls to nonReentrant after this point will fail\n        _status = _ENTERED;\n\n        _;\n\n        // By storing the original value once again, a refund is triggered (see\n        // https://eips.ethereum.org/EIPS/eip-2200)\n        _status = _NOT_ENTERED;\n    }\n}\n\n// File: @openzeppelin/contracts/utils/Address.sol\n\n/**\n * @dev Collection of functions related to the address type\n */\nlibrary Address {\n    /**\n     * @dev Returns true if `account` is a contract.\n     *\n     * [IMPORTANT]\n     * ====\n     * It is unsafe to assume that an address for which this function returns\n     * false is an externally-owned account (EOA) and not a contract.\n     *\n     * Among others, `isContract` will return false for the following\n     * types of addresses:\n     *\n     *  - an externally-owned account\n     *  - a contract in construction\n     *  - an address where a contract will be created\n     *  - an address where a contract lived, but was destroyed\n     * ====\n     */\n    function isContract(address account) internal view returns (bool) {\n        // This method relies on extcodesize, which returns 0 for contracts in\n        // construction, since the code is only stored at the end of the\n        // constructor execution.\n\n        uint256 size;\n        assembly {\n            size := extcodesize(account)\n        }\n        return size > 0;\n    }\n\n    /**\n     * @dev Replacement for Solidity's `transfer`: sends `amount` wei to\n     * `recipient`, forwarding all available gas and reverting on errors.\n     *\n     * https://eips.ethereum.org/EIPS/eip-1884[EIP1884] increases the gas cost\n     * of certain opcodes, possibly making contracts go over the 2300 gas limit\n     * imposed by `transfer`, making them unable to receive funds via\n     * `transfer`. {sendValue} removes this limitation.\n     *\n     * https://diligence.consensys.net/posts/2019/09/stop-using-soliditys-transfer-now/[Learn more].\n     *\n     * IMPORTANT: because control is transferred to `recipient`, care must be\n     * taken to not create reentrancy vulnerabilities. Consider using\n     * {ReentrancyGuard} or the\n     * https://solidity.readthedocs.io/en/v0.5.11/security-considerations.html#use-the-checks-effects-interactions-pattern[checks-effects-interactions pattern].\n     */\n    function sendValue(address payable recipient, uint256 amount) internal {\n        require(\n            address(this).balance >= amount,\n            \"Address: insufficient balance\"\n        );\n\n        (bool success, ) = recipient.call{value: amount}(\"\");\n        require(\n            success,\n            \"Address: unable to send value, recipient may have reverted\"\n        );\n    }\n\n    /**\n     * @dev Performs a Solidity function call using a low level `call`. A\n     * plain `call` is an unsafe replacement for a function call: use this\n     * function instead.\n     *\n     * If `target` reverts with a revert reason, it is bubbled up by this\n     * function (like regular Solidity function calls).\n     *\n     * Returns the raw returned data. To convert to the expected return value,\n     * use https://solidity.readthedocs.io/en/latest/units-and-global-variables.html?highlight=abi.decode#abi-encoding-and-decoding-functions[`abi.decode`].\n     *\n     * Requirements:\n     *\n     * - `target` must be a contract.\n     * - calling `target` with `data` must not revert.\n     *\n     * _Available since v3.1._\n     */\n    function functionCall(address target, bytes memory data)\n        internal\n        returns (bytes memory)\n    {\n        return functionCall(target, data, \"Address: low-level call failed\");\n    }\n\n    /**\n     * @dev Same as {xref-Address-functionCall-address-bytes-}[`functionCall`], but with\n     * `errorMessage` as a fallback revert reason when `target` reverts.\n     *\n     * _Available since v3.1._\n     */\n    function functionCall(\n        address target,\n        bytes memory data,\n        string memory errorMessage\n    ) internal returns (bytes memory) {\n        return functionCallWithValue(target, data, 0, errorMessage);\n    }\n\n    /**\n     * @dev Same as {xref-Address-functionCall-address-bytes-}[`functionCall`],\n     * but also transferring `value` wei to `target`.\n     *\n     * Requirements:\n     *\n     * - the calling contract must have an ETH balance of at least `value`.\n     * - the called Solidity function must be `payable`.\n     *\n     * _Available since v3.1._\n     */\n    function functionCallWithValue(\n        address target,\n        bytes memory data,\n        uint256 value\n    ) internal returns (bytes memory) {\n        return\n            functionCallWithValue(\n                target,\n                data,\n                value,\n                \"Address: low-level call with value failed\"\n            );\n    }\n\n    /**\n     * @dev Same as {xref-Address-functionCallWithValue-address-bytes-uint256-}[`functionCallWithValue`], but\n     * with `errorMessage` as a fallback revert reason when `target` reverts.\n     *\n     * _Available since v3.1._\n     */\n    function functionCallWithValue(\n        address target,\n        bytes memory data,\n        uint256 value,\n        string memory errorMessage\n    ) internal returns (bytes memory) {\n        require(\n            address(this).balance >= value,\n            \"Address: insufficient balance for call\"\n        );\n        require(isContract(target), \"Address: call to non-contract\");\n\n        (bool success, bytes memory returndata) = target.call{value: value}(\n            data\n        );\n        return _verifyCallResult(success, returndata, errorMessage);\n    }\n\n    /**\n     * @dev Same as {xref-Address-functionCall-address-bytes-}[`functionCall`],\n     * but performing a static call.\n     *\n     * _Available since v3.3._\n     */\n    function functionStaticCall(address target, bytes memory data)\n        internal\n        view\n        returns (bytes memory)\n    {\n        return\n            functionStaticCall(\n                target,\n                data,\n                \"Address: low-level static call failed\"\n            );\n    }\n\n    /**\n     * @dev Same as {xref-Address-functionCall-address-bytes-string-}[`functionCall`],\n     * but performing a static call.\n     *\n     * _Available since v3.3._\n     */\n    function functionStaticCall(\n        address target,\n        bytes memory data,\n        string memory errorMessage\n    ) internal view returns (bytes memory) {\n        require(isContract(target), \"Address: static call to non-contract\");\n\n        (bool success, bytes memory returndata) = target.staticcall(data);\n        return _verifyCallResult(success, returndata, errorMessage);\n    }\n\n    /**\n     * @dev Same as {xref-Address-functionCall-address-bytes-}[`functionCall`],\n     * but performing a delegate call.\n     *\n     * _Available since v3.4._\n     */\n    function functionDelegateCall(address target, bytes memory data)\n        internal\n        returns (bytes memory)\n    {\n        return\n            functionDelegateCall(\n                target,\n                data,\n                \"Address: low-level delegate call failed\"\n            );\n    }\n\n    /**\n     * @dev Same as {xref-Address-functionCall-address-bytes-string-}[`functionCall`],\n     * but performing a delegate call.\n     *\n     * _Available since v3.4._\n     */\n    function functionDelegateCall(\n        address target,\n        bytes memory data,\n        string memory errorMessage\n    ) internal returns (bytes memory) {\n        require(isContract(target), \"Address: delegate call to non-contract\");\n\n        (bool success, bytes memory returndata) = target.delegatecall(data);\n        return _verifyCallResult(success, returndata, errorMessage);\n    }\n\n    function _verifyCallResult(\n        bool success,\n        bytes memory returndata,\n        string memory errorMessage\n    ) private pure returns (bytes memory) {\n        if (success) {\n            return returndata;\n        } else {\n            // Look for revert reason and bubble it up if present\n            if (returndata.length > 0) {\n                // The easiest way to bubble the revert reason is using memory via assembly\n\n                assembly {\n                    let returndata_size := mload(returndata)\n                    revert(add(32, returndata), returndata_size)\n                }\n            } else {\n                revert(errorMessage);\n            }\n        }\n    }\n}\n\n// File: \"@openzeppelin/contracts/token/ERC20/utils/SafeERC20.sol\";\n\n/**\n * @title SafeERC20\n * @dev Wrappers around ERC20 operations that throw on failure (when the token\n * contract returns false). Tokens that return no value (and instead revert or\n * throw on failure) are also supported, non-reverting calls are assumed to be\n * successful.\n * To use this library you can add a `using SafeERC20 for IERC20;` statement to your contract,\n * which allows you to call the safe operations as `token.safeTransfer(...)`, etc.\n */\nlibrary SafeERC20 {\n    using Address for address;\n\n    function safeTransfer(\n        IERC20 token,\n        address to,\n        uint256 value\n    ) internal {\n        _callOptionalReturn(\n            token,\n            abi.encodeWithSelector(token.transfer.selector, to, value)\n        );\n    }\n\n    function safeTransferFrom(\n        IERC20 token,\n        address from,\n        address to,\n        uint256 value\n    ) internal {\n        _callOptionalReturn(\n            token,\n            abi.encodeWithSelector(token.transferFrom.selector, from, to, value)\n        );\n    }\n\n    /**\n     * @dev Deprecated. This function has issues similar to the ones found in\n     * {IERC20-approve}, and its usage is discouraged.\n     *\n     * Whenever possible, use {safeIncreaseAllowance} and\n     * {safeDecreaseAllowance} instead.\n     */\n    function safeApprove(\n        IERC20 token,\n        address spender,\n        uint256 value\n    ) internal {\n        // safeApprove should only be called when setting an initial allowance,\n        // or when resetting it to zero. To increase and decrease it, use\n        // 'safeIncreaseAllowance' and 'safeDecreaseAllowance'\n        require(\n            (value == 0) || (token.allowance(address(this), spender) == 0),\n            \"SafeERC20: approve from non-zero to non-zero allowance\"\n        );\n        _callOptionalReturn(\n            token,\n            abi.encodeWithSelector(token.approve.selector, spender, value)\n        );\n    }\n\n    function safeIncreaseAllowance(\n        IERC20 token,\n        address spender,\n        uint256 value\n    ) internal {\n        uint256 newAllowance = token.allowance(address(this), spender) + value;\n        _callOptionalReturn(\n            token,\n            abi.encodeWithSelector(\n                token.approve.selector,\n                spender,\n                newAllowance\n            )\n        );\n    }\n\n    function safeDecreaseAllowance(\n        IERC20 token,\n        address spender,\n        uint256 value\n    ) internal {\n        unchecked {\n            uint256 oldAllowance = token.allowance(address(this), spender);\n            require(\n                oldAllowance >= value,\n                \"SafeERC20: decreased allowance below zero\"\n            );\n            uint256 newAllowance = oldAllowance - value;\n            _callOptionalReturn(\n                token,\n                abi.encodeWithSelector(\n                    token.approve.selector,\n                    spender,\n                    newAllowance\n                )\n            );\n        }\n    }\n\n    /**\n     * @dev Imitates a Solidity high-level call (i.e. a regular function call to a contract), relaxing the requirement\n     * on the return value: the return value is optional (but if data is returned, it must not be false).\n     * @param token The token targeted by the call.\n     * @param data The call data (encoded using abi.encode or one of its variants).\n     */\n    function _callOptionalReturn(IERC20 token, bytes memory data) private {\n        // We need to perform a low level call here, to bypass Solidity's return data size checking mechanism, since\n        // we're implementing it ourselves. We use {Address.functionCall} to perform this call, which verifies that\n        // the target address contains contract code and also asserts for success in the low-level call.\n\n        bytes memory returndata = address(token).functionCall(\n            data,\n            \"SafeERC20: low-level call failed\"\n        );\n        if (returndata.length > 0) {\n            // Return data is optional\n            require(\n                abi.decode(returndata, (bool)),\n                \"SafeERC20: ERC20 operation did not succeed\"\n            );\n        }\n    }\n}\n\ncontract StakeInitializable is Ownable, ReentrancyGuard {\n    using SafeERC20 for IERC20Metadata;\n\n    // Address of the stake factory\n    address public STAKE_FACTORY;\n\n    // Whether it is initialized\n    bool public _isInitialized;\n\n    // The staked token\n    IERC20Metadata public _stakedToken;\n\n    // The reward token\n    IERC20Metadata public _rewardToken;\n\n    // Reward tokens created per block\n    uint256 public _rewardPerBlock;\n\n    // The block number when reward token's mining starts\n    uint256 public _startBlock;\n\n    // The block number when reward token's mining ends\n    uint256 public _bonusEndBlock;\n\n    // The block number of the last pool update\n    uint256 public _lastRewardBlock;\n\n    // Staking time periods in days\n    uint256[] public _timePeriods;\n\n    // Penalty amounts for early unstake\n    uint256[] public _penalties;\n\n    // Sum of allocation points of every time-based staking pool\n    uint256 public _totalAllocPoints;\n\n    // Whether it is time-based staking\n    bool public _isTimeBasedStaking = true;\n\n    // Whether early staking charge penalty\n    bool public _isPenaltyCharged = true;\n\n    // The precision factor\n    uint256 public PRECISION_FACTOR;\n\n    // Penalty fee denominator\n    uint256 public FEE_DENOMINATOR = 100;\n\n    // Info of each time-based staking pool\n    struct PoolInfo {\n        uint256 allocPoint; // How many allocation points are assignd to this pool\n        uint256 lastRewardBlock; // The block number of this pool's last update\n        uint256 accTokenPerShare; // Accrued reward token per share\n        uint256 penalty; // Penalty amount for early unstake\n        uint256 totalDeposits; // Total amount of staked tokens deposited\n    }\n    // Info of each pool mapped with their time periods\n    mapping(uint256 => PoolInfo) public poolInfo;\n\n    // Info of each user\n    struct UserInfo {\n        uint256 amount; // How many staked tokens the user has provided\n        uint256 rewardDebt; // Reward debt\n        uint256 claimTime; // Before this time, any claim will result in penalty\n        // mapping (uint256 => PoolInfo) userPoolInfo\n    }\n    // Info of each user that stakes token (stakedToken) in a given pool\n    mapping(address => mapping(uint256 => UserInfo)) public userInfo;\n\n    event Deposit(\n        address indexed user,\n        uint256 indexed period,\n        uint256 indexed amount\n    );\n\n    event Claim(\n        address indexed user,\n        uint256 indexed period,\n        uint256 indexed amount\n    );\n\n    event Withdraw(\n        address indexed user,\n        uint256 indexed period,\n        uint256 indexed withdrawalAmount,\n        uint256 rewardAmount\n    );\n\n    event UpdateFeeDenominator(\n        uint256 oldFEE_DENOMINATOR,\n        uint256 newFEE_DENOMINATOR\n    );\n\n    /*\n     * @notice Constructor\n     */\n    constructor() {\n        STAKE_FACTORY = msg.sender;\n    }\n\n    /**\n     * @notice Initialize the contract\n     * @param stakedToken_: staked token address\n     * @param rewardToken_: reward token address\n     * @param rewardPerBlock_: reward per block (in reward token)\n     * @param startBlock_: start block\n     * @param bonusEndBlock_: end block\n     * @param timePeriods_: staking intervals (in days)\n     * @param penalties_: early withdrawal penalty for every staking interval\n     * @param admin_:  admin address with ownership\n     */\n    function initialize(\n        IERC20Metadata stakedToken_,\n        IERC20Metadata rewardToken_,\n        uint256 rewardPerBlock_,\n        uint256 startBlock_,\n        uint256 bonusEndBlock_,\n        uint256[] memory timePeriods_,\n        uint256[] memory penalties_,\n        address admin_\n    ) external {\n        require(!_isInitialized, \"Already initialized\");\n        require(msg.sender == STAKE_FACTORY, \"Not factory\");\n        require(\n            stakedToken_ != IERC20Metadata(address(0)) &&\n                rewardToken_ != IERC20Metadata(address(0)),\n            \"Staked token or Reward token cannot be zero address\"\n        );\n        require(\n            rewardPerBlock_ != 0,\n            \"Reward Per Block must be greater than zero\"\n        );\n        require(\n            startBlock_ >= block.number,\n            \"Start block must be ahead or equal to the initializing block\"\n        );\n        require(\n            bonusEndBlock_ > startBlock_,\n            \"Staking end time must be greater than start time\"\n        );\n        require(\n            timePeriods_.length == penalties_.length,\n            \"Time period and penalty lengths must be equal\"\n        );\n\n        if (timePeriods_.length == 1) {\n            require(\n                timePeriods_[0] != 0,\n                \"Time period cannot be zero. Enter empty array to avoid time-based staking\"\n            );\n        }\n\n        // Make this contract initialized\n        _isInitialized = true;\n\n        _stakedToken = stakedToken_;\n        _rewardToken = rewardToken_;\n        _rewardPerBlock = rewardPerBlock_;\n        _startBlock = startBlock_;\n        _bonusEndBlock = bonusEndBlock_;\n        _timePeriods = timePeriods_;\n        _penalties = penalties_;\n\n        uint256 decimalsRewardToken = uint256(_rewardToken.decimals());\n        require(decimalsRewardToken < 30, \"Must be less than 30\");\n\n        // If there is no time based staking\n        if (timePeriods_.length == 0) {\n            _isTimeBasedStaking = false;\n        }\n\n        // If there are no penalties on early withdrawal\n        if (penalties_.length == 0) {\n            _isPenaltyCharged = false;\n        } else {\n            // Check if all the 'penalties_' elements are zero\n            for (uint256 i = 0; i < penalties_.length; i++) {\n                if (penalties_[i] == 0) {\n                    if (i == (penalties_.length - 1)) {\n                        _isPenaltyCharged = false;\n                    }\n                    continue;\n                } else {\n                    break;\n                }\n            }\n        }\n\n        // Create either time-based staking pools or a single zero-day staking pool\n        if (_isTimeBasedStaking) {\n            uint256 totalPools = _timePeriods.length;\n            _totalAllocPoints = (totalPools * (totalPools + 1)) / 2; // n(n+1)/2 => Sum of an A.P. with a = d = 1\n\n            for (uint256 i = 0; i < totalPools; i++) {\n                poolInfo[_timePeriods[i]] = PoolInfo({\n                    allocPoint: uint256(i + 1),\n                    lastRewardBlock: _startBlock,\n                    accTokenPerShare: 0,\n                    penalty: _penalties[i],\n                    totalDeposits: 0\n                });\n            }\n        } else {\n            _totalAllocPoints = 1;\n            poolInfo[0] = PoolInfo({\n                allocPoint: 1,\n                lastRewardBlock: _startBlock,\n                accTokenPerShare: 0,\n                penalty: 0,\n                totalDeposits: 0\n            });\n        }\n\n        PRECISION_FACTOR = uint256(10**(uint256(30) - decimalsRewardToken));\n\n        // Set the lastRewardBlock as the startBlock\n        _lastRewardBlock = _startBlock;\n\n        // Transfer ownership to the admin address who becomes owner of the contract\n        transferOwnership(admin_);\n    }\n\n    /**\n     * @notice Deposit staked tokens\n     * @param amount_: amount to deposit (in staked tokens)\n     * @param period_: staking interval\n     */\n    function deposit(uint256 amount_, uint256 period_) public nonReentrant {\n        require(amount_ > 0, \"Deposit amount must be greater than zero\");\n        // Check if the entered 'period_' exists / valid\n        if (_isTimeBasedStaking) {\n            require(\n                _searchArray(_timePeriods, period_),\n                \"Invalid staking period\"\n            );\n        } else {\n            require(period_ == 0, \"Invalid staking period, enter zero\");\n        }\n\n        PoolInfo storage pool = poolInfo[period_];\n        UserInfo storage user = userInfo[msg.sender][period_];\n\n        _updatePool(period_);\n\n        // Transfer staked token to this contract\n        _stakedToken.safeTransferFrom(\n            address(msg.sender),\n            address(this),\n            amount_\n        );\n\n        // Update the storage variables\n        pool.totalDeposits += amount_;\n        user.amount += amount_;\n        user.rewardDebt =\n            (user.amount * pool.accTokenPerShare) /\n            PRECISION_FACTOR;\n        if (_isPenaltyCharged) {\n            user.claimTime = block.timestamp + _inSeconds(period_);\n        }\n\n        emit Deposit(msg.sender, period_, amount_);\n    }\n\n    /**\n     * @notice Claim reward tokens (if any)\n     * @param period_: staking interval\n     */\n    function claim(uint256 period_) public nonReentrant {\n        // Check if the entered 'period_' exists / valid\n        if (_isTimeBasedStaking) {\n            require(\n                _searchArray(_timePeriods, period_),\n                \"Invalid staking period\"\n            );\n        } else {\n            require(period_ == 0, \"Invalid staking period, enter zero\");\n        }\n\n        PoolInfo storage pool = poolInfo[period_];\n        UserInfo storage user = userInfo[msg.sender][period_];\n\n        // Users can claim their rewards if:\n        // 1) there is no penalty being charged\n        // 2) user has exceeded the claim time\n        // 3) there is no penalty in this particular staking period\n        require(\n            (!_isPenaltyCharged) ||\n                (user.claimTime <= block.timestamp) ||\n                (pool.penalty == 0),\n            \"Claim time is not yet reached\"\n        );\n        require(user.amount > 0, \"User has not yet staked any tokens\");\n\n        _updatePool(period_);\n\n        uint256 pendingRewards = ((user.amount * pool.accTokenPerShare) /\n            PRECISION_FACTOR) - user.rewardDebt;\n        if (pendingRewards > 0) {\n            _rewardToken.safeTransfer(address(msg.sender), pendingRewards);\n        }\n        user.rewardDebt =\n            (user.amount * pool.accTokenPerShare) /\n            PRECISION_FACTOR;\n\n        emit Claim(msg.sender, period_, pendingRewards);\n    }\n\n    /**\n     * @notice Withdraw staked tokens\n     * @param amount_: amount to withdraw (in staked tokens)\n     * @param period_: staking interval\n     */\n    function withdraw(uint256 amount_, uint256 period_) public nonReentrant {\n        require(amount_ > 0, \"Withdraw amount must be greater than zero\");\n        // Check if the entered 'period_' exists / valid\n        if (_isTimeBasedStaking) {\n            require(\n                _searchArray(_timePeriods, period_),\n                \"Invalid staking period\"\n            );\n        } else {\n            require(period_ == 0, \"Invalid staking period, enter zero\");\n        }\n\n        PoolInfo storage pool = poolInfo[period_];\n        UserInfo storage user = userInfo[msg.sender][period_];\n\n        require(\n            user.amount >= amount_,\n            \"Withdrawal amount exceeds staked amount\"\n        );\n\n        _updatePool(period_);\n\n        uint256 pendingRewards = ((user.amount * pool.accTokenPerShare) /\n            PRECISION_FACTOR) - user.rewardDebt;\n\n        // Distribute rewards, if any\n        if (pendingRewards > 0) {\n            if (\n                (!_isPenaltyCharged) ||\n                (user.claimTime <= block.timestamp) ||\n                (pool.penalty == 0)\n            ) {\n                _rewardToken.safeTransfer(address(msg.sender), pendingRewards);\n            } else {\n                // Time has not yet reached, so charge a penalty on rewards\n                pendingRewards -=\n                    (pendingRewards * pool.penalty) /\n                    FEE_DENOMINATOR;\n                _rewardToken.safeTransfer(address(msg.sender), pendingRewards);\n            }\n        }\n\n        pool.totalDeposits -= amount_;\n        user.amount -= amount_;\n        _stakedToken.safeTransfer(address(msg.sender), amount_);\n        user.rewardDebt =\n            (user.amount * pool.accTokenPerShare) /\n            PRECISION_FACTOR;\n\n        emit Withdraw(msg.sender, period_, amount_, pendingRewards);\n    }\n\n    /*\n     * @notice Update reward variables of the given pool to be up-to-date\n     * @param pid_: staking pool to update\n     */\n    function _updatePool(uint256 pid_) internal {\n        PoolInfo storage pool = poolInfo[pid_];\n\n        if (block.number <= pool.lastRewardBlock) {\n            return;\n        }\n\n        // uint256 stakedTokenSupply = _stakedToken.balanceOf(address(this));\n        uint256 stakedTokenSupply = pool.totalDeposits;\n\n        if (stakedTokenSupply == 0) {\n            pool.lastRewardBlock = block.number;\n            return;\n        }\n\n        uint256 multiplier = _getMultiplier(pool.lastRewardBlock, block.number);\n        uint256 tokenReward = (multiplier * _rewardPerBlock * pool.allocPoint) /\n            _totalAllocPoints;\n        pool.accTokenPerShare =\n            pool.accTokenPerShare +\n            (tokenReward * PRECISION_FACTOR) /\n            stakedTokenSupply;\n        pool.lastRewardBlock = block.number;\n        _lastRewardBlock = block.number;\n    }\n\n    /**\n     * @notice Return reward multiplier over the given 'from_' to 'to_' block\n     * @param from_: block to start\n     * @param to_: block to finish\n     */\n    function _getMultiplier(uint256 from_, uint256 to_)\n        internal\n        view\n        returns (uint256 multiplier)\n    {\n        if (to_ <= _bonusEndBlock) {\n            multiplier = to_ - from_;\n        } else if (from_ >= _bonusEndBlock) {\n            multiplier = 0;\n        } else {\n            multiplier = _bonusEndBlock - from_;\n        }\n    }\n\n    /**\n     * @dev Calculates the number of seconds\n     * @param days_: number of days\n     */\n    function _inSeconds(uint256 days_) private pure returns (uint256) {\n        uint256 secondsInDays = days_ * 24 * 60 * 60;\n        return secondsInDays;\n    }\n\n    /**\n     * @dev Checks if a given array contains the passed value\n     * @param array_: an array of unsigned integers\n     * @param value_: value to search in the given array\n     */\n    function _searchArray(uint256[] memory array_, uint256 value_)\n        private\n        pure\n        returns (bool)\n    {\n        bool exists = false;\n        for (uint256 i = 0; i < array_.length; i++) {\n            if (array_[i] == value_) {\n                exists = true;\n                break;\n            }\n        }\n        return exists;\n    }\n\n    /**\n     * @notice Set Fee Denominator\n     * @param newDenominator_: new fee denominator\n     */\n    function setFEE_DENOMINATOR(uint256 newDenominator_) public onlyOwner {\n        uint256 oldFEE_DENOMINATOR = FEE_DENOMINATOR;\n        FEE_DENOMINATOR = newDenominator_;\n\n        emit UpdateFeeDenominator(oldFEE_DENOMINATOR, FEE_DENOMINATOR);\n    }\n}\n\ncontract StakeTokenFactory is Ownable {\n    event NewStakingContract(address indexed stakingContract);\n\n    constructor() {}\n\n    /*\n     * @notice Deploy the staking pool\n     * @param stakedToken_: staked token address\n     * @param rewardToken_: reward token address\n     * @param rewardPerBlock_: reward per block (in reward token)\n     * @param startBlock_: start block\n     * @param bonusEndBlock_: end block\n     * @param timePeriods_: staking intervals (in days)\n     * @param penalties_: early withdrawal penalty for every staking interval\n     * @param admin_:  admin address with ownership\n     */\n    function initializeStakingContract(\n        IERC20Metadata stakedToken_,\n        IERC20Metadata rewardToken_,\n        uint256 rewardPerBlock_,\n        uint256 startBlock_,\n        uint256 bonusEndBlock_,\n        uint256[] calldata timePeriods_, // Input in ascending order\n        uint256[] calldata penalties_,\n        address admin_\n    ) external onlyOwner {\n        bytes memory bytecode = type(StakeInitializable).creationCode;\n        // pass constructor argument\n        bytecode = abi.encodePacked(bytecode);\n        bytes32 salt = keccak256(abi.encodePacked(stakedToken_, rewardToken_));\n        address stakeInitializableAddress;\n\n        assembly {\n            stakeInitializableAddress := create2(\n                0,\n                add(bytecode, 32),\n                mload(bytecode),\n                salt\n            )\n        }\n\n        StakeInitializable(stakeInitializableAddress).initialize(\n            stakedToken_,\n            rewardToken_,\n            rewardPerBlock_,\n            startBlock_,\n            bonusEndBlock_,\n            timePeriods_,\n            penalties_,\n            admin_\n        );\n\n        emit NewStakingContract(stakeInitializableAddress);\n    }\n}\n",
    "sourcePath": "contracts/StakeToken.sol",
    "type": "contract"
}